{
  "address": "0xb1a40746dc35d00ECE291895716D7f20Cb747f14",
  "abi": [
    {
      "inputs": [
        {
          "internalType": "string",
          "name": "_name",
          "type": "string"
        },
        {
          "internalType": "string",
          "name": "_symbol",
          "type": "string"
        },
        {
          "internalType": "address",
          "name": "_lzEndpoint",
          "type": "address"
        },
        {
          "internalType": "address",
          "name": "_delegate",
          "type": "address"
        },
        {
          "internalType": "string",
          "name": "initialBaseURI",
          "type": "string"
        },
        {
          "internalType": "address",
          "name": "_initialTreasuryWallet",
          "type": "address"
        }
      ],
      "stateMutability": "nonpayable",
      "type": "constructor"
    },
    {
      "inputs": [
        {
          "internalType": "uint256",
          "name": "numerator",
          "type": "uint256"
        },
        {
          "internalType": "uint256",
          "name": "denominator",
          "type": "uint256"
        }
      ],
      "name": "ERC2981InvalidDefaultRoyalty",
      "type": "error"
    },
    {
      "inputs": [
        {
          "internalType": "address",
          "name": "receiver",
          "type": "address"
        }
      ],
      "name": "ERC2981InvalidDefaultRoyaltyReceiver",
      "type": "error"
    },
    {
      "inputs": [
        {
          "internalType": "uint256",
          "name": "tokenId",
          "type": "uint256"
        },
        {
          "internalType": "uint256",
          "name": "numerator",
          "type": "uint256"
        },
        {
          "internalType": "uint256",
          "name": "denominator",
          "type": "uint256"
        }
      ],
      "name": "ERC2981InvalidTokenRoyalty",
      "type": "error"
    },
    {
      "inputs": [
        {
          "internalType": "uint256",
          "name": "tokenId",
          "type": "uint256"
        },
        {
          "internalType": "address",
          "name": "receiver",
          "type": "address"
        }
      ],
      "name": "ERC2981InvalidTokenRoyaltyReceiver",
      "type": "error"
    },
    {
      "inputs": [
        {
          "internalType": "address",
          "name": "sender",
          "type": "address"
        },
        {
          "internalType": "uint256",
          "name": "tokenId",
          "type": "uint256"
        },
        {
          "internalType": "address",
          "name": "owner",
          "type": "address"
        }
      ],
      "name": "ERC721IncorrectOwner",
      "type": "error"
    },
    {
      "inputs": [
        {
          "internalType": "address",
          "name": "operator",
          "type": "address"
        },
        {
          "internalType": "uint256",
          "name": "tokenId",
          "type": "uint256"
        }
      ],
      "name": "ERC721InsufficientApproval",
      "type": "error"
    },
    {
      "inputs": [
        {
          "internalType": "address",
          "name": "approver",
          "type": "address"
        }
      ],
      "name": "ERC721InvalidApprover",
      "type": "error"
    },
    {
      "inputs": [
        {
          "internalType": "address",
          "name": "operator",
          "type": "address"
        }
      ],
      "name": "ERC721InvalidOperator",
      "type": "error"
    },
    {
      "inputs": [
        {
          "internalType": "address",
          "name": "owner",
          "type": "address"
        }
      ],
      "name": "ERC721InvalidOwner",
      "type": "error"
    },
    {
      "inputs": [
        {
          "internalType": "address",
          "name": "receiver",
          "type": "address"
        }
      ],
      "name": "ERC721InvalidReceiver",
      "type": "error"
    },
    {
      "inputs": [
        {
          "internalType": "address",
          "name": "sender",
          "type": "address"
        }
      ],
      "name": "ERC721InvalidSender",
      "type": "error"
    },
    {
      "inputs": [
        {
          "internalType": "uint256",
          "name": "tokenId",
          "type": "uint256"
        }
      ],
      "name": "ERC721NonexistentToken",
      "type": "error"
    },
    {
      "inputs": [],
      "name": "EnforcedPause",
      "type": "error"
    },
    {
      "inputs": [],
      "name": "ExpectedPause",
      "type": "error"
    },
    {
      "inputs": [],
      "name": "InvalidDelegate",
      "type": "error"
    },
    {
      "inputs": [],
      "name": "InvalidEndpointCall",
      "type": "error"
    },
    {
      "inputs": [
        {
          "internalType": "bytes",
          "name": "options",
          "type": "bytes"
        }
      ],
      "name": "InvalidOptions",
      "type": "error"
    },
    {
      "inputs": [],
      "name": "InvalidReceiver",
      "type": "error"
    },
    {
      "inputs": [],
      "name": "LzTokenUnavailable",
      "type": "error"
    },
    {
      "inputs": [
        {
          "internalType": "uint32",
          "name": "eid",
          "type": "uint32"
        }
      ],
      "name": "NoPeer",
      "type": "error"
    },
    {
      "inputs": [
        {
          "internalType": "uint256",
          "name": "msgValue",
          "type": "uint256"
        }
      ],
      "name": "NotEnoughNative",
      "type": "error"
    },
    {
      "inputs": [
        {
          "internalType": "address",
          "name": "addr",
          "type": "address"
        }
      ],
      "name": "OnlyEndpoint",
      "type": "error"
    },
    {
      "inputs": [
        {
          "internalType": "address",
          "name": "caller",
          "type": "address"
        },
        {
          "internalType": "address",
          "name": "owner",
          "type": "address"
        }
      ],
      "name": "OnlyNFTOwner",
      "type": "error"
    },
    {
      "inputs": [
        {
          "internalType": "uint32",
          "name": "eid",
          "type": "uint32"
        },
        {
          "internalType": "bytes32",
          "name": "sender",
          "type": "bytes32"
        }
      ],
      "name": "OnlyPeer",
      "type": "error"
    },
    {
      "inputs": [],
      "name": "OnlySelf",
      "type": "error"
    },
    {
      "inputs": [
        {
          "internalType": "address",
          "name": "owner",
          "type": "address"
        }
      ],
      "name": "OwnableInvalidOwner",
      "type": "error"
    },
    {
      "inputs": [
        {
          "internalType": "address",
          "name": "account",
          "type": "address"
        }
      ],
      "name": "OwnableUnauthorizedAccount",
      "type": "error"
    },
    {
      "inputs": [],
      "name": "ReentrancyGuardReentrantCall",
      "type": "error"
    },
    {
      "inputs": [
        {
          "internalType": "address",
          "name": "token",
          "type": "address"
        }
      ],
      "name": "SafeERC20FailedOperation",
      "type": "error"
    },
    {
      "inputs": [
        {
          "internalType": "bytes",
          "name": "result",
          "type": "bytes"
        }
      ],
      "name": "SimulationResult",
      "type": "error"
    },
    {
      "anonymous": false,
      "inputs": [
        {
          "indexed": true,
          "internalType": "address",
          "name": "owner",
          "type": "address"
        },
        {
          "indexed": true,
          "internalType": "address",
          "name": "approved",
          "type": "address"
        },
        {
          "indexed": true,
          "internalType": "uint256",
          "name": "tokenId",
          "type": "uint256"
        }
      ],
      "name": "Approval",
      "type": "event"
    },
    {
      "anonymous": false,
      "inputs": [
        {
          "indexed": true,
          "internalType": "address",
          "name": "owner",
          "type": "address"
        },
        {
          "indexed": true,
          "internalType": "address",
          "name": "operator",
          "type": "address"
        },
        {
          "indexed": false,
          "internalType": "bool",
          "name": "approved",
          "type": "bool"
        }
      ],
      "name": "ApprovalForAll",
      "type": "event"
    },
    {
      "anonymous": false,
      "inputs": [
        {
          "indexed": false,
          "internalType": "string",
          "name": "baseURI",
          "type": "string"
        }
      ],
      "name": "BaseURISet",
      "type": "event"
    },
    {
      "anonymous": false,
      "inputs": [
        {
          "indexed": true,
          "internalType": "address",
          "name": "whitelistee",
          "type": "address"
        }
      ],
      "name": "BearlistedWhitelistAdded",
      "type": "event"
    },
    {
      "anonymous": false,
      "inputs": [
        {
          "indexed": true,
          "internalType": "address",
          "name": "whitelistee",
          "type": "address"
        }
      ],
      "name": "BearlistedWhitelistRemoved",
      "type": "event"
    },
    {
      "anonymous": false,
      "inputs": [
        {
          "components": [
            {
              "internalType": "uint32",
              "name": "eid",
              "type": "uint32"
            },
            {
              "internalType": "uint16",
              "name": "msgType",
              "type": "uint16"
            },
            {
              "internalType": "bytes",
              "name": "options",
              "type": "bytes"
            }
          ],
          "indexed": false,
          "internalType": "struct EnforcedOptionParam[]",
          "name": "_enforcedOptions",
          "type": "tuple[]"
        }
      ],
      "name": "EnforcedOptionSet",
      "type": "event"
    },
    {
      "anonymous": false,
      "inputs": [
        {
          "indexed": false,
          "internalType": "string",
          "name": "newExtension",
          "type": "string"
        }
      ],
      "name": "FileExtensionUpdated",
      "type": "event"
    },
    {
      "anonymous": false,
      "inputs": [
        {
          "indexed": true,
          "internalType": "address",
          "name": "to",
          "type": "address"
        },
        {
          "indexed": false,
          "internalType": "uint256",
          "name": "tokenId",
          "type": "uint256"
        }
      ],
      "name": "Minted",
      "type": "event"
    },
    {
      "anonymous": false,
      "inputs": [
        {
          "indexed": false,
          "internalType": "address",
          "name": "inspector",
          "type": "address"
        }
      ],
      "name": "MsgInspectorSet",
      "type": "event"
    },
    {
      "anonymous": false,
      "inputs": [
        {
          "indexed": true,
          "internalType": "address",
          "name": "whitelistee",
          "type": "address"
        }
      ],
      "name": "OGWhitelistAdded",
      "type": "event"
    },
    {
      "anonymous": false,
      "inputs": [
        {
          "indexed": true,
          "internalType": "address",
          "name": "whitelistee",
          "type": "address"
        }
      ],
      "name": "OGWhitelistRemoved",
      "type": "event"
    },
    {
      "anonymous": false,
      "inputs": [
        {
          "indexed": true,
          "internalType": "bytes32",
          "name": "guid",
          "type": "bytes32"
        },
        {
          "indexed": false,
          "internalType": "uint32",
          "name": "srcEid",
          "type": "uint32"
        },
        {
          "indexed": true,
          "internalType": "address",
          "name": "toAddress",
          "type": "address"
        },
        {
          "indexed": false,
          "internalType": "uint256",
          "name": "tokenId",
          "type": "uint256"
        }
      ],
      "name": "ONFTReceived",
      "type": "event"
    },
    {
      "anonymous": false,
      "inputs": [
        {
          "indexed": true,
          "internalType": "bytes32",
          "name": "guid",
          "type": "bytes32"
        },
        {
          "indexed": false,
          "internalType": "uint32",
          "name": "dstEid",
          "type": "uint32"
        },
        {
          "indexed": true,
          "internalType": "address",
          "name": "fromAddress",
          "type": "address"
        },
        {
          "indexed": false,
          "internalType": "uint256",
          "name": "tokenId",
          "type": "uint256"
        }
      ],
      "name": "ONFTSent",
      "type": "event"
    },
    {
      "anonymous": false,
      "inputs": [
        {
          "indexed": true,
          "internalType": "address",
          "name": "previousOwner",
          "type": "address"
        },
        {
          "indexed": true,
          "internalType": "address",
          "name": "newOwner",
          "type": "address"
        }
      ],
      "name": "OwnershipTransferred",
      "type": "event"
    },
    {
      "anonymous": false,
      "inputs": [
        {
          "indexed": false,
          "internalType": "address",
          "name": "account",
          "type": "address"
        }
      ],
      "name": "Paused",
      "type": "event"
    },
    {
      "anonymous": false,
      "inputs": [
        {
          "indexed": false,
          "internalType": "uint32",
          "name": "eid",
          "type": "uint32"
        },
        {
          "indexed": false,
          "internalType": "bytes32",
          "name": "peer",
          "type": "bytes32"
        }
      ],
      "name": "PeerSet",
      "type": "event"
    },
    {
      "anonymous": false,
      "inputs": [
        {
          "indexed": false,
          "internalType": "address",
          "name": "preCrimeAddress",
          "type": "address"
        }
      ],
      "name": "PreCrimeSet",
      "type": "event"
    },
    {
      "anonymous": false,
      "inputs": [
        {
          "indexed": false,
          "internalType": "enum CultBearsV2Avalanche.TokenRarityType",
          "name": "rarity",
          "type": "uint8"
        },
        {
          "indexed": false,
          "internalType": "uint256",
          "name": "newPrice",
          "type": "uint256"
        }
      ],
      "name": "PrivateMintPriceUpdated",
      "type": "event"
    },
    {
      "anonymous": false,
      "inputs": [
        {
          "indexed": false,
          "internalType": "enum CultBearsV2Avalanche.TokenRarityType",
          "name": "rarity",
          "type": "uint8"
        },
        {
          "indexed": false,
          "internalType": "uint256",
          "name": "newPrice",
          "type": "uint256"
        }
      ],
      "name": "PublicMintPriceUpdated",
      "type": "event"
    },
    {
      "anonymous": false,
      "inputs": [
        {
          "indexed": false,
          "internalType": "bool",
          "name": "isPublicMintAllowed",
          "type": "bool"
        }
      ],
      "name": "PublicMintToggled",
      "type": "event"
    },
    {
      "anonymous": false,
      "inputs": [
        {
          "indexed": true,
          "internalType": "address",
          "name": "receiver",
          "type": "address"
        },
        {
          "indexed": false,
          "internalType": "uint96",
          "name": "feeNumerator",
          "type": "uint96"
        }
      ],
      "name": "RoyaltySet",
      "type": "event"
    },
    {
      "anonymous": false,
      "inputs": [
        {
          "indexed": true,
          "internalType": "address",
          "name": "from",
          "type": "address"
        },
        {
          "indexed": true,
          "internalType": "address",
          "name": "to",
          "type": "address"
        },
        {
          "indexed": true,
          "internalType": "uint256",
          "name": "tokenId",
          "type": "uint256"
        }
      ],
      "name": "Transfer",
      "type": "event"
    },
    {
      "anonymous": false,
      "inputs": [
        {
          "indexed": true,
          "internalType": "address",
          "name": "oldWallet",
          "type": "address"
        },
        {
          "indexed": true,
          "internalType": "address",
          "name": "newWallet",
          "type": "address"
        }
      ],
      "name": "TreasuryWalletChanged",
      "type": "event"
    },
    {
      "anonymous": false,
      "inputs": [
        {
          "indexed": false,
          "internalType": "string",
          "name": "newBaseURI",
          "type": "string"
        }
      ],
      "name": "URIUpdated",
      "type": "event"
    },
    {
      "anonymous": false,
      "inputs": [
        {
          "indexed": false,
          "internalType": "address",
          "name": "account",
          "type": "address"
        }
      ],
      "name": "Unpaused",
      "type": "event"
    },
    {
      "stateMutability": "payable",
      "type": "fallback"
    },
    {
      "inputs": [],
      "name": "SEND",
      "outputs": [
        {
          "internalType": "uint16",
          "name": "",
          "type": "uint16"
        }
      ],
      "stateMutability": "view",
      "type": "function"
    },
    {
      "inputs": [],
      "name": "SEND_AND_COMPOSE",
      "outputs": [
        {
          "internalType": "uint16",
          "name": "",
          "type": "uint16"
        }
      ],
      "stateMutability": "view",
      "type": "function"
    },
    {
      "inputs": [
        {
          "internalType": "string",
          "name": "newBaseURI",
          "type": "string"
        }
      ],
      "name": "_setBaseURI",
      "outputs": [],
      "stateMutability": "nonpayable",
      "type": "function"
    },
    {
      "inputs": [
        {
          "internalType": "address",
          "name": "whitelistee",
          "type": "address"
        }
      ],
      "name": "addToBearlistedWhitelist",
      "outputs": [],
      "stateMutability": "nonpayable",
      "type": "function"
    },
    {
      "inputs": [
        {
          "internalType": "address",
          "name": "whitelistee",
          "type": "address"
        }
      ],
      "name": "addToOGWhitelist",
      "outputs": [],
      "stateMutability": "nonpayable",
      "type": "function"
    },
    {
      "inputs": [
        {
          "internalType": "address",
          "name": "to",
          "type": "address"
        },
        {
          "internalType": "uint256",
          "name": "tokenID",
          "type": "uint256"
        }
      ],
      "name": "airdrop",
      "outputs": [],
      "stateMutability": "nonpayable",
      "type": "function"
    },
    {
      "inputs": [
        {
          "internalType": "address",
          "name": "to",
          "type": "address"
        },
        {
          "internalType": "uint256[]",
          "name": "tokenIDs",
          "type": "uint256[]"
        }
      ],
      "name": "airdropMultiple",
      "outputs": [],
      "stateMutability": "nonpayable",
      "type": "function"
    },
    {
      "inputs": [
        {
          "components": [
            {
              "internalType": "uint32",
              "name": "srcEid",
              "type": "uint32"
            },
            {
              "internalType": "bytes32",
              "name": "sender",
              "type": "bytes32"
            },
            {
              "internalType": "uint64",
              "name": "nonce",
              "type": "uint64"
            }
          ],
          "internalType": "struct Origin",
          "name": "origin",
          "type": "tuple"
        }
      ],
      "name": "allowInitializePath",
      "outputs": [
        {
          "internalType": "bool",
          "name": "",
          "type": "bool"
        }
      ],
      "stateMutability": "view",
      "type": "function"
    },
    {
      "inputs": [],
      "name": "approvalRequired",
      "outputs": [
        {
          "internalType": "bool",
          "name": "",
          "type": "bool"
        }
      ],
      "stateMutability": "pure",
      "type": "function"
    },
    {
      "inputs": [
        {
          "internalType": "address",
          "name": "to",
          "type": "address"
        },
        {
          "internalType": "uint256",
          "name": "tokenId",
          "type": "uint256"
        }
      ],
      "name": "approve",
      "outputs": [],
      "stateMutability": "nonpayable",
      "type": "function"
    },
    {
      "inputs": [
        {
          "internalType": "address",
          "name": "owner",
          "type": "address"
        }
      ],
      "name": "balanceOf",
      "outputs": [
        {
          "internalType": "uint256",
          "name": "",
          "type": "uint256"
        }
      ],
      "stateMutability": "view",
      "type": "function"
    },
    {
      "inputs": [],
      "name": "baseURI",
      "outputs": [
        {
          "internalType": "string",
          "name": "",
          "type": "string"
        }
      ],
      "stateMutability": "view",
      "type": "function"
    },
    {
      "inputs": [
        {
          "internalType": "address",
          "name": "",
          "type": "address"
        }
      ],
      "name": "bearlistedWhitelist",
      "outputs": [
        {
          "internalType": "bool",
          "name": "",
          "type": "bool"
        }
      ],
      "stateMutability": "view",
      "type": "function"
    },
    {
      "inputs": [
        {
          "internalType": "address",
          "name": "_treasuryWallet",
          "type": "address"
        }
      ],
      "name": "changeTreasuryWallet",
      "outputs": [],
      "stateMutability": "nonpayable",
      "type": "function"
    },
    {
      "inputs": [
        {
          "internalType": "uint32",
          "name": "_eid",
          "type": "uint32"
        },
        {
          "internalType": "uint16",
          "name": "_msgType",
          "type": "uint16"
        },
        {
          "internalType": "bytes",
          "name": "_extraOptions",
          "type": "bytes"
        }
      ],
      "name": "combineOptions",
      "outputs": [
        {
          "internalType": "bytes",
          "name": "",
          "type": "bytes"
        }
      ],
      "stateMutability": "view",
      "type": "function"
    },
    {
      "inputs": [],
      "name": "endpoint",
      "outputs": [
        {
          "internalType": "contract ILayerZeroEndpointV2",
          "name": "",
          "type": "address"
        }
      ],
      "stateMutability": "view",
      "type": "function"
    },
    {
      "inputs": [
        {
          "internalType": "uint32",
          "name": "eid",
          "type": "uint32"
        },
        {
          "internalType": "uint16",
          "name": "msgType",
          "type": "uint16"
        }
      ],
      "name": "enforcedOptions",
      "outputs": [
        {
          "internalType": "bytes",
          "name": "enforcedOption",
          "type": "bytes"
        }
      ],
      "stateMutability": "view",
      "type": "function"
    },
    {
      "inputs": [],
      "name": "fileExtension",
      "outputs": [
        {
          "internalType": "string",
          "name": "",
          "type": "string"
        }
      ],
      "stateMutability": "view",
      "type": "function"
    },
    {
      "inputs": [
        {
          "internalType": "uint256",
          "name": "tokenId",
          "type": "uint256"
        }
      ],
      "name": "getApproved",
      "outputs": [
        {
          "internalType": "address",
          "name": "",
          "type": "address"
        }
      ],
      "stateMutability": "view",
      "type": "function"
    },
    {
      "inputs": [
        {
          "internalType": "enum CultBearsV2Avalanche.TokenRarityType",
          "name": "rarityType",
          "type": "uint8"
        }
      ],
      "name": "getPrice",
      "outputs": [
        {
          "internalType": "uint256",
          "name": "",
          "type": "uint256"
        }
      ],
      "stateMutability": "view",
      "type": "function"
    },
    {
      "inputs": [
        {
          "internalType": "uint256",
          "name": "tokenId",
          "type": "uint256"
        }
      ],
      "name": "getRarity",
      "outputs": [
        {
          "internalType": "enum CultBearsV2Avalanche.TokenRarityType",
          "name": "",
          "type": "uint8"
        }
      ],
      "stateMutability": "pure",
      "type": "function"
    },
    {
      "inputs": [
        {
          "internalType": "address",
          "name": "owner",
          "type": "address"
        },
        {
          "internalType": "address",
          "name": "operator",
          "type": "address"
        }
      ],
      "name": "isApprovedForAll",
      "outputs": [
        {
          "internalType": "bool",
          "name": "",
          "type": "bool"
        }
      ],
      "stateMutability": "view",
      "type": "function"
    },
    {
      "inputs": [
        {
          "components": [
            {
              "internalType": "uint32",
              "name": "srcEid",
              "type": "uint32"
            },
            {
              "internalType": "bytes32",
              "name": "sender",
              "type": "bytes32"
            },
            {
              "internalType": "uint64",
              "name": "nonce",
              "type": "uint64"
            }
          ],
          "internalType": "struct Origin",
          "name": "",
          "type": "tuple"
        },
        {
          "internalType": "bytes",
          "name": "",
          "type": "bytes"
        },
        {
          "internalType": "address",
          "name": "_sender",
          "type": "address"
        }
      ],
      "name": "isComposeMsgSender",
      "outputs": [
        {
          "internalType": "bool",
          "name": "",
          "type": "bool"
        }
      ],
      "stateMutability": "view",
      "type": "function"
    },
    {
      "inputs": [
        {
          "internalType": "uint32",
          "name": "_eid",
          "type": "uint32"
        },
        {
          "internalType": "bytes32",
          "name": "_peer",
          "type": "bytes32"
        }
      ],
      "name": "isPeer",
      "outputs": [
        {
          "internalType": "bool",
          "name": "",
          "type": "bool"
        }
      ],
      "stateMutability": "view",
      "type": "function"
    },
    {
      "inputs": [],
      "name": "isPublicMintAllowed",
      "outputs": [
        {
          "internalType": "bool",
          "name": "",
          "type": "bool"
        }
      ],
      "stateMutability": "view",
      "type": "function"
    },
    {
      "inputs": [
        {
          "components": [
            {
              "internalType": "uint32",
              "name": "srcEid",
              "type": "uint32"
            },
            {
              "internalType": "bytes32",
              "name": "sender",
              "type": "bytes32"
            },
            {
              "internalType": "uint64",
              "name": "nonce",
              "type": "uint64"
            }
          ],
          "internalType": "struct Origin",
          "name": "_origin",
          "type": "tuple"
        },
        {
          "internalType": "bytes32",
          "name": "_guid",
          "type": "bytes32"
        },
        {
          "internalType": "bytes",
          "name": "_message",
          "type": "bytes"
        },
        {
          "internalType": "address",
          "name": "_executor",
          "type": "address"
        },
        {
          "internalType": "bytes",
          "name": "_extraData",
          "type": "bytes"
        }
      ],
      "name": "lzReceive",
      "outputs": [],
      "stateMutability": "payable",
      "type": "function"
    },
    {
      "inputs": [
        {
          "components": [
            {
              "components": [
                {
                  "internalType": "uint32",
                  "name": "srcEid",
                  "type": "uint32"
                },
                {
                  "internalType": "bytes32",
                  "name": "sender",
                  "type": "bytes32"
                },
                {
                  "internalType": "uint64",
                  "name": "nonce",
                  "type": "uint64"
                }
              ],
              "internalType": "struct Origin",
              "name": "origin",
              "type": "tuple"
            },
            {
              "internalType": "uint32",
              "name": "dstEid",
              "type": "uint32"
            },
            {
              "internalType": "address",
              "name": "receiver",
              "type": "address"
            },
            {
              "internalType": "bytes32",
              "name": "guid",
              "type": "bytes32"
            },
            {
              "internalType": "uint256",
              "name": "value",
              "type": "uint256"
            },
            {
              "internalType": "address",
              "name": "executor",
              "type": "address"
            },
            {
              "internalType": "bytes",
              "name": "message",
              "type": "bytes"
            },
            {
              "internalType": "bytes",
              "name": "extraData",
              "type": "bytes"
            }
          ],
          "internalType": "struct InboundPacket[]",
          "name": "_packets",
          "type": "tuple[]"
        }
      ],
      "name": "lzReceiveAndRevert",
      "outputs": [],
      "stateMutability": "payable",
      "type": "function"
    },
    {
      "inputs": [
        {
          "components": [
            {
              "internalType": "uint32",
              "name": "srcEid",
              "type": "uint32"
            },
            {
              "internalType": "bytes32",
              "name": "sender",
              "type": "bytes32"
            },
            {
              "internalType": "uint64",
              "name": "nonce",
              "type": "uint64"
            }
          ],
          "internalType": "struct Origin",
          "name": "_origin",
          "type": "tuple"
        },
        {
          "internalType": "bytes32",
          "name": "_guid",
          "type": "bytes32"
        },
        {
          "internalType": "bytes",
          "name": "_message",
          "type": "bytes"
        },
        {
          "internalType": "address",
          "name": "_executor",
          "type": "address"
        },
        {
          "internalType": "bytes",
          "name": "_extraData",
          "type": "bytes"
        }
      ],
      "name": "lzReceiveSimulate",
      "outputs": [],
      "stateMutability": "payable",
      "type": "function"
    },
    {
      "inputs": [],
      "name": "maxSupply",
      "outputs": [
        {
          "internalType": "uint256",
          "name": "",
          "type": "uint256"
        }
      ],
      "stateMutability": "view",
      "type": "function"
    },
    {
      "inputs": [
        {
          "internalType": "uint256",
          "name": "mintAmount",
          "type": "uint256"
        },
        {
          "internalType": "enum CultBearsV2Avalanche.TokenRarityType",
          "name": "rarity",
          "type": "uint8"
        }
      ],
      "name": "mintMultiple",
      "outputs": [],
      "stateMutability": "payable",
      "type": "function"
    },
    {
      "inputs": [],
      "name": "msgInspector",
      "outputs": [
        {
          "internalType": "address",
          "name": "",
          "type": "address"
        }
      ],
      "stateMutability": "view",
      "type": "function"
    },
    {
      "inputs": [],
      "name": "name",
      "outputs": [
        {
          "internalType": "string",
          "name": "",
          "type": "string"
        }
      ],
      "stateMutability": "view",
      "type": "function"
    },
    {
      "inputs": [
        {
          "internalType": "uint32",
          "name": "",
          "type": "uint32"
        },
        {
          "internalType": "bytes32",
          "name": "",
          "type": "bytes32"
        }
      ],
      "name": "nextNonce",
      "outputs": [
        {
          "internalType": "uint64",
          "name": "nonce",
          "type": "uint64"
        }
      ],
      "stateMutability": "view",
      "type": "function"
    },
    {
      "inputs": [],
      "name": "oApp",
      "outputs": [
        {
          "internalType": "address",
          "name": "",
          "type": "address"
        }
      ],
      "stateMutability": "view",
      "type": "function"
    },
    {
      "inputs": [],
      "name": "oAppVersion",
      "outputs": [
        {
          "internalType": "uint64",
          "name": "senderVersion",
          "type": "uint64"
        },
        {
          "internalType": "uint64",
          "name": "receiverVersion",
          "type": "uint64"
        }
      ],
      "stateMutability": "pure",
      "type": "function"
    },
    {
      "inputs": [
        {
          "internalType": "address",
          "name": "",
          "type": "address"
        }
      ],
      "name": "ogWhitelist",
      "outputs": [
        {
          "internalType": "bool",
          "name": "",
          "type": "bool"
        }
      ],
      "stateMutability": "view",
      "type": "function"
    },
    {
      "inputs": [],
      "name": "onftVersion",
      "outputs": [
        {
          "internalType": "bytes4",
          "name": "interfaceId",
          "type": "bytes4"
        },
        {
          "internalType": "uint64",
          "name": "version",
          "type": "uint64"
        }
      ],
      "stateMutability": "pure",
      "type": "function"
    },
    {
      "inputs": [],
      "name": "owner",
      "outputs": [
        {
          "internalType": "address",
          "name": "",
          "type": "address"
        }
      ],
      "stateMutability": "view",
      "type": "function"
    },
    {
      "inputs": [
        {
          "internalType": "uint256",
          "name": "tokenId",
          "type": "uint256"
        }
      ],
      "name": "ownerOf",
      "outputs": [
        {
          "internalType": "address",
          "name": "",
          "type": "address"
        }
      ],
      "stateMutability": "view",
      "type": "function"
    },
    {
      "inputs": [],
      "name": "pause",
      "outputs": [],
      "stateMutability": "nonpayable",
      "type": "function"
    },
    {
      "inputs": [],
      "name": "paused",
      "outputs": [
        {
          "internalType": "bool",
          "name": "",
          "type": "bool"
        }
      ],
      "stateMutability": "view",
      "type": "function"
    },
    {
      "inputs": [
        {
          "internalType": "uint32",
          "name": "eid",
          "type": "uint32"
        }
      ],
      "name": "peers",
      "outputs": [
        {
          "internalType": "bytes32",
          "name": "peer",
          "type": "bytes32"
        }
      ],
      "stateMutability": "view",
      "type": "function"
    },
    {
      "inputs": [],
      "name": "preCrime",
      "outputs": [
        {
          "internalType": "address",
          "name": "",
          "type": "address"
        }
      ],
      "stateMutability": "view",
      "type": "function"
    },
    {
      "inputs": [
        {
          "internalType": "enum CultBearsV2Avalanche.TokenRarityType",
          "name": "",
          "type": "uint8"
        }
      ],
      "name": "publicSalePrice",
      "outputs": [
        {
          "internalType": "uint256",
          "name": "",
          "type": "uint256"
        }
      ],
      "stateMutability": "view",
      "type": "function"
    },
    {
      "inputs": [
        {
          "components": [
            {
              "internalType": "uint32",
              "name": "dstEid",
              "type": "uint32"
            },
            {
              "internalType": "bytes32",
              "name": "to",
              "type": "bytes32"
            },
            {
              "internalType": "uint256",
              "name": "tokenId",
              "type": "uint256"
            },
            {
              "internalType": "bytes",
              "name": "extraOptions",
              "type": "bytes"
            },
            {
              "internalType": "bytes",
              "name": "composeMsg",
              "type": "bytes"
            },
            {
              "internalType": "bytes",
              "name": "onftCmd",
              "type": "bytes"
            }
          ],
          "internalType": "struct SendParam",
          "name": "_sendParam",
          "type": "tuple"
        },
        {
          "internalType": "bool",
          "name": "_payInLzToken",
          "type": "bool"
        }
      ],
      "name": "quoteSend",
      "outputs": [
        {
          "components": [
            {
              "internalType": "uint256",
              "name": "nativeFee",
              "type": "uint256"
            },
            {
              "internalType": "uint256",
              "name": "lzTokenFee",
              "type": "uint256"
            }
          ],
          "internalType": "struct MessagingFee",
          "name": "msgFee",
          "type": "tuple"
        }
      ],
      "stateMutability": "view",
      "type": "function"
    },
    {
      "inputs": [
        {
          "internalType": "address",
          "name": "whitelistee",
          "type": "address"
        }
      ],
      "name": "removeFromBearlistedWhitelist",
      "outputs": [],
      "stateMutability": "nonpayable",
      "type": "function"
    },
    {
      "inputs": [
        {
          "internalType": "address",
          "name": "whitelistee",
          "type": "address"
        }
      ],
      "name": "removeFromOGWhitelist",
      "outputs": [],
      "stateMutability": "nonpayable",
      "type": "function"
    },
    {
      "inputs": [],
      "name": "renounceOwnership",
      "outputs": [],
      "stateMutability": "nonpayable",
      "type": "function"
    },
    {
      "inputs": [
        {
          "internalType": "uint256",
          "name": "tokenId",
          "type": "uint256"
        },
        {
          "internalType": "uint256",
          "name": "salePrice",
          "type": "uint256"
        }
      ],
      "name": "royaltyInfo",
      "outputs": [
        {
          "internalType": "address",
          "name": "receiver",
          "type": "address"
        },
        {
          "internalType": "uint256",
          "name": "amount",
          "type": "uint256"
        }
      ],
      "stateMutability": "view",
      "type": "function"
    },
    {
      "inputs": [
        {
          "internalType": "address",
          "name": "from",
          "type": "address"
        },
        {
          "internalType": "address",
          "name": "to",
          "type": "address"
        },
        {
          "internalType": "uint256",
          "name": "tokenId",
          "type": "uint256"
        }
      ],
      "name": "safeTransferFrom",
      "outputs": [],
      "stateMutability": "nonpayable",
      "type": "function"
    },
    {
      "inputs": [
        {
          "internalType": "address",
          "name": "from",
          "type": "address"
        },
        {
          "internalType": "address",
          "name": "to",
          "type": "address"
        },
        {
          "internalType": "uint256",
          "name": "tokenId",
          "type": "uint256"
        },
        {
          "internalType": "bytes",
          "name": "data",
          "type": "bytes"
        }
      ],
      "name": "safeTransferFrom",
      "outputs": [],
      "stateMutability": "nonpayable",
      "type": "function"
    },
    {
      "inputs": [
        {
          "components": [
            {
              "internalType": "uint32",
              "name": "dstEid",
              "type": "uint32"
            },
            {
              "internalType": "bytes32",
              "name": "to",
              "type": "bytes32"
            },
            {
              "internalType": "uint256",
              "name": "tokenId",
              "type": "uint256"
            },
            {
              "internalType": "bytes",
              "name": "extraOptions",
              "type": "bytes"
            },
            {
              "internalType": "bytes",
              "name": "composeMsg",
              "type": "bytes"
            },
            {
              "internalType": "bytes",
              "name": "onftCmd",
              "type": "bytes"
            }
          ],
          "internalType": "struct SendParam",
          "name": "_sendParam",
          "type": "tuple"
        },
        {
          "components": [
            {
              "internalType": "uint256",
              "name": "nativeFee",
              "type": "uint256"
            },
            {
              "internalType": "uint256",
              "name": "lzTokenFee",
              "type": "uint256"
            }
          ],
          "internalType": "struct MessagingFee",
          "name": "_fee",
          "type": "tuple"
        },
        {
          "internalType": "address",
          "name": "_refundAddress",
          "type": "address"
        }
      ],
      "name": "send",
      "outputs": [
        {
          "components": [
            {
              "internalType": "bytes32",
              "name": "guid",
              "type": "bytes32"
            },
            {
              "internalType": "uint64",
              "name": "nonce",
              "type": "uint64"
            },
            {
              "components": [
                {
                  "internalType": "uint256",
                  "name": "nativeFee",
                  "type": "uint256"
                },
                {
                  "internalType": "uint256",
                  "name": "lzTokenFee",
                  "type": "uint256"
                }
              ],
              "internalType": "struct MessagingFee",
              "name": "fee",
              "type": "tuple"
            }
          ],
          "internalType": "struct MessagingReceipt",
          "name": "msgReceipt",
          "type": "tuple"
        }
      ],
      "stateMutability": "payable",
      "type": "function"
    },
    {
      "inputs": [
        {
          "internalType": "address",
          "name": "operator",
          "type": "address"
        },
        {
          "internalType": "bool",
          "name": "approved",
          "type": "bool"
        }
      ],
      "name": "setApprovalForAll",
      "outputs": [],
      "stateMutability": "nonpayable",
      "type": "function"
    },
    {
      "inputs": [
        {
          "internalType": "string",
          "name": "_baseTokenURI",
          "type": "string"
        }
      ],
      "name": "setBaseURI",
      "outputs": [],
      "stateMutability": "nonpayable",
      "type": "function"
    },
    {
      "inputs": [
        {
          "internalType": "address",
          "name": "_delegate",
          "type": "address"
        }
      ],
      "name": "setDelegate",
      "outputs": [],
      "stateMutability": "nonpayable",
      "type": "function"
    },
    {
      "inputs": [
        {
          "components": [
            {
              "internalType": "uint32",
              "name": "eid",
              "type": "uint32"
            },
            {
              "internalType": "uint16",
              "name": "msgType",
              "type": "uint16"
            },
            {
              "internalType": "bytes",
              "name": "options",
              "type": "bytes"
            }
          ],
          "internalType": "struct EnforcedOptionParam[]",
          "name": "_enforcedOptions",
          "type": "tuple[]"
        }
      ],
      "name": "setEnforcedOptions",
      "outputs": [],
      "stateMutability": "nonpayable",
      "type": "function"
    },
    {
      "inputs": [
        {
          "internalType": "string",
          "name": "extension",
          "type": "string"
        }
      ],
      "name": "setFileExtension",
      "outputs": [],
      "stateMutability": "nonpayable",
      "type": "function"
    },
    {
      "inputs": [
        {
          "internalType": "address",
          "name": "_msgInspector",
          "type": "address"
        }
      ],
      "name": "setMsgInspector",
      "outputs": [],
      "stateMutability": "nonpayable",
      "type": "function"
    },
    {
      "inputs": [
        {
          "internalType": "uint32",
          "name": "_eid",
          "type": "uint32"
        },
        {
          "internalType": "bytes32",
          "name": "_peer",
          "type": "bytes32"
        }
      ],
      "name": "setPeer",
      "outputs": [],
      "stateMutability": "nonpayable",
      "type": "function"
    },
    {
      "inputs": [
        {
          "internalType": "address",
          "name": "_preCrime",
          "type": "address"
        }
      ],
      "name": "setPreCrime",
      "outputs": [],
      "stateMutability": "nonpayable",
      "type": "function"
    },
    {
      "inputs": [
        {
          "internalType": "enum CultBearsV2Avalanche.TokenRarityType",
          "name": "rarity",
          "type": "uint8"
        },
        {
          "internalType": "uint256",
          "name": "price",
          "type": "uint256"
        }
      ],
      "name": "setPrivateMintPrice",
      "outputs": [],
      "stateMutability": "nonpayable",
      "type": "function"
    },
    {
      "inputs": [
        {
          "internalType": "enum CultBearsV2Avalanche.TokenRarityType",
          "name": "rarity",
          "type": "uint8"
        },
        {
          "internalType": "uint256",
          "name": "price",
          "type": "uint256"
        }
      ],
      "name": "setPublicMintPrice",
      "outputs": [],
      "stateMutability": "nonpayable",
      "type": "function"
    },
    {
      "inputs": [
        {
          "internalType": "uint256",
          "name": "tokenId",
          "type": "uint256"
        },
        {
          "internalType": "address",
          "name": "receiver",
          "type": "address"
        },
        {
          "internalType": "uint96",
          "name": "feeNumerator",
          "type": "uint96"
        }
      ],
      "name": "setTokenRoyalty",
      "outputs": [],
      "stateMutability": "nonpayable",
      "type": "function"
    },
    {
      "inputs": [
        {
          "internalType": "bytes4",
          "name": "interfaceId",
          "type": "bytes4"
        }
      ],
      "name": "supportsInterface",
      "outputs": [
        {
          "internalType": "bool",
          "name": "",
          "type": "bool"
        }
      ],
      "stateMutability": "view",
      "type": "function"
    },
    {
      "inputs": [],
      "name": "symbol",
      "outputs": [
        {
          "internalType": "string",
          "name": "",
          "type": "string"
        }
      ],
      "stateMutability": "view",
      "type": "function"
    },
    {
      "inputs": [],
      "name": "togglePublicMint",
      "outputs": [],
      "stateMutability": "nonpayable",
      "type": "function"
    },
    {
      "inputs": [],
      "name": "token",
      "outputs": [
        {
          "internalType": "address",
          "name": "",
          "type": "address"
        }
      ],
      "stateMutability": "view",
      "type": "function"
    },
    {
      "inputs": [
        {
          "internalType": "enum CultBearsV2Avalanche.TokenRarityType",
          "name": "",
          "type": "uint8"
        }
      ],
      "name": "tokenIDCounter",
      "outputs": [
        {
          "internalType": "uint16",
          "name": "",
          "type": "uint16"
        }
      ],
      "stateMutability": "view",
      "type": "function"
    },
    {
      "inputs": [
        {
          "internalType": "enum CultBearsV2Avalanche.TokenRarityType",
          "name": "",
          "type": "uint8"
        }
      ],
      "name": "tokenIDRange",
      "outputs": [
        {
          "internalType": "uint256",
          "name": "start",
          "type": "uint256"
        },
        {
          "internalType": "uint256",
          "name": "amount",
          "type": "uint256"
        }
      ],
      "stateMutability": "view",
      "type": "function"
    },
    {
      "inputs": [
        {
          "internalType": "uint256",
          "name": "tokenId",
          "type": "uint256"
        }
      ],
      "name": "tokenURI",
      "outputs": [
        {
          "internalType": "string",
          "name": "",
          "type": "string"
        }
      ],
      "stateMutability": "view",
      "type": "function"
    },
    {
      "inputs": [
        {
          "internalType": "address",
          "name": "from",
          "type": "address"
        },
        {
          "internalType": "address",
          "name": "to",
          "type": "address"
        },
        {
          "internalType": "uint256",
          "name": "tokenId",
          "type": "uint256"
        }
      ],
      "name": "transferFrom",
      "outputs": [],
      "stateMutability": "nonpayable",
      "type": "function"
    },
    {
      "inputs": [
        {
          "internalType": "address",
          "name": "newOwner",
          "type": "address"
        }
      ],
      "name": "transferOwnership",
      "outputs": [],
      "stateMutability": "nonpayable",
      "type": "function"
    },
    {
      "inputs": [],
      "name": "treasuryWallet",
      "outputs": [
        {
          "internalType": "address",
          "name": "",
          "type": "address"
        }
      ],
      "stateMutability": "view",
      "type": "function"
    },
    {
      "inputs": [],
      "name": "unpause",
      "outputs": [],
      "stateMutability": "nonpayable",
      "type": "function"
    },
    {
      "inputs": [],
      "name": "withdraw",
      "outputs": [],
      "stateMutability": "nonpayable",
      "type": "function"
    },
    {
      "stateMutability": "payable",
      "type": "receive"
    }
  ],
  "transactionHash": "0xee2645a13f3e76bb98927487e6318d7d20b465b5cb6ebb09683dc9eb546c2408",
  "args": [
    "Cult Bears",
    "CBEARS",
    "0x6EDCE65403992e310A62460808c4b910D972f10f",
    "0x7B61605BfE32c36D5df2aEc37707b3fA2f12b8B0",
    "https://arweave.net/yEZJbyNFfcsw-aweLmt8q6lXTJTMgiMLg_1JVM9QpDU/",
    "0x7B61605BfE32c36D5df2aEc37707b3fA2f12b8B0"
  ],
  "numDeployments": 1,
  "solcInputHash": "04f89e7880915af86d2c8a1dca348dc8",
  "bytecode": "0x60e0604052600560a090815264173539b7b760d91b60c0526011906200002690826200076b565b506012805460ff60a01b191690553480156200004157600080fd5b5060405162005db738038062005db7833981016040819052620000649162000906565b858585858383838381818181806001600160a01b038116620000a157604051631e4fbdf760e01b8152600060048201526024015b60405180910390fd5b620000ac81620005cd565b506001600160a01b038083166080528116620000db57604051632d618d8160e21b815260040160405180910390fd5b60805160405163ca5eb5e160e01b81526001600160a01b0383811660048301529091169063ca5eb5e190602401600060405180830381600087803b1580156200012357600080fd5b505af115801562000138573d6000803e3d6000fd5b5050505050505050505081600590816200015391906200076b565b5060066200016282826200076b565b50506001600c555050600f805460ff191690555050506001600160a01b038116620001df5760405162461bcd60e51b815260206004820152602660248201527f54726561737572792077616c6c65742063616e6e6f74206265207a65726f206160448201526564647265737360d01b606482015260840162000098565b6010620001ed83826200076b565b50601280546001600160a01b0319166001600160a01b0383169081179091556200021a906101f46200061d565b505068043a77aabd007800007f8fa6efc3be94b5b348b21fea823fe8d100408cee9b7f90524494500445d8ff6c5550506808670e9ec6598c00007f4155c2f711f2cdd34f8262ab8fb9b7020a700fe7b6948222152f7670d1fdf34d5550506810ce1d3d8cb31800007f0b9d2c0c271bb30544eb78c59bdaebdae2728e5f65814c07768a0abe90ed19235568219c3a7b19663000007f0d2a6872ef858a7f8ead18dc4f3f2e8d35c853d47e2816cbb9cdd49202554e0c5568433874f632cc6000007f01413ff7a3b1d5b6c016c061d48e2c7014700c777a29fcd068fff04265813d5d556804d31f847531c400007f4f26c3876aa9f4b92579780beea1161a61f87ebf1ec6ee865b299e447ecba99c556809985e5236bc2400007fb6c61a840592cc84133e4b25bd509abf4659307c57b160799b38490a5aa48f2c55681330bca46d784800007fa1930aa930426c54c34daad2b9ada7c5d0ef0c96078a3c5bb79f6fa6602c4a7a5568266f59ff8e97f400007f63d87a887046e0430be80fdeb014107d7198c879cbf2cddf39a6df195c86cb3855684cd0d34869888400007f52102136546d97ed3f65ec1070a32935d3048ea12f310d29c378dc9d6555c0d65560408051808201825260018082526002602080840182815260046000908152601580845295517f8191f4eb6b8bafbfe9a5389c8d07d7f5fd81137a7ee653fc4358269845ee1d2e5590517f8191f4eb6b8bafbfe9a5389c8d07d7f5fd81137a7ee653fc4358269845ee1d2f55855180870187526003808252600d82850190815290835286845290517fb3a65e8276bd33b3e4f7d6081ebd9899187264822358758dca2e2bc37b2a9c2755517fb3a65e8276bd33b3e4f7d6081ebd9899187264822358758dca2e2bc37b2a9c285585518087018752601081526019818401908152938252858352517f07d4ff730d9753101d832555708a37d38c2c45fce8cacaefc99f06074e93fe0b5591517f07d4ff730d9753101d832555708a37d38c2c45fce8cacaefc99f06074e93fe0c5584518086018652602981526032818301908152938352848252517f27739e4bb5e6f8b5e4b57a047dca8767cc9b982a011081e086cbb0dfa9de818d5591517f27739e4bb5e6f8b5e4b57a047dca8767cc9b982a011081e086cbb0dfa9de818e558351808501909452605b845261038e84830190815290805291905290517fa31547ce6245cdb9ecea19cf8c7eb9f5974025bb4075011409251ae855b30aed55517fa31547ce6245cdb9ecea19cf8c7eb9f5974025bb4075011409251ae855b30aee55620009ce565b600080546001600160a01b038381166001600160a01b0319831681178455604051919092169283917f8be0079c531659141344cd1fd0a4f28419497f9722a3daafe3b4186f6b6457e09190a35050565b6127106001600160601b0382168110156200065e57604051636f483d0960e01b81526001600160601b03831660048201526024810182905260440162000098565b6001600160a01b0383166200068a57604051635b6cc80560e11b81526000600482015260240162000098565b50604080518082019091526001600160a01b039092168083526001600160601b039091166020909201829052600160a01b90910217600d55565b634e487b7160e01b600052604160045260246000fd5b600181811c90821680620006ef57607f821691505b6020821081036200071057634e487b7160e01b600052602260045260246000fd5b50919050565b601f82111562000766576000816000526020600020601f850160051c81016020861015620007415750805b601f850160051c820191505b8181101562000762578281556001016200074d565b5050505b505050565b81516001600160401b03811115620007875762000787620006c4565b6200079f81620007988454620006da565b8462000716565b602080601f831160018114620007d75760008415620007be5750858301515b600019600386901b1c1916600185901b17855562000762565b600085815260208120601f198616915b828110156200080857888601518255948401946001909101908401620007e7565b5085821015620008275787850151600019600388901b60f8161c191681555b5050505050600190811b01905550565b600082601f8301126200084957600080fd5b81516001600160401b0380821115620008665762000866620006c4565b604051601f8301601f19908116603f01168101908282118183101715620008915762000891620006c4565b8160405283815260209250866020858801011115620008af57600080fd5b600091505b83821015620008d35785820183015181830184015290820190620008b4565b6000602085830101528094505050505092915050565b80516001600160a01b03811681146200090157600080fd5b919050565b60008060008060008060c087890312156200092057600080fd5b86516001600160401b03808211156200093857600080fd5b620009468a838b0162000837565b975060208901519150808211156200095d57600080fd5b6200096b8a838b0162000837565b96506200097b60408a01620008e9565b95506200098b60608a01620008e9565b94506080890151915080821115620009a257600080fd5b50620009b189828a0162000837565b925050620009c260a08801620008e9565b90509295509295509295565b60805161539c62000a1b6000396000818161089001528181610f92015281816122b101528181612c2d01528181612ed1015281816136cf01528181613af80152613bb1015261539c6000f3fe6080604052600436106104105760003560e01c806370a082311161021c578063bc70b35411610122578063d5abeb01116100b0578063f2fde38b11610077578063f2fde38b14610d48578063f4b2afc514610d68578063f87cafb014610d98578063fc0c546a1461079c578063ff7bd03d14610db857005b8063d5abeb0114610c96578063e204263914610cac578063e985e9c514610ccc578063f01e4c5414610cec578063f034f0b014610d3557005b8063c87b56dd116100f4578063c87b56dd14610c02578063ca5eb5e114610c22578063cd08c36614610c42578063d045a0dc14610c63578063d424388514610c7657005b8063bc70b35414610b82578063bd815db014610ba2578063c6414e7b14610bb5578063c70ae49314610be257005b806395d89b41116101aa578063b21a33e411610171578063b21a33e414610ae0578063b731ea0a14610af5578063b88d4fde14610b15578063b98bd07014610b35578063bb0b6a5314610b5557005b806395d89b4114610a4f5780639f68b96414610a64578063a22cb46514610a78578063a72f5dd814610a98578063ac054b0f14610ac057005b80638456cb59116101ee5780638456cb59146109c75780638ba4cc3c146109dc5780638da5cb5b146109fc5780638dc91ac214610a1a5780638f1cfa8e14610a2f57005b806370a0823114610937578063715018a6146109575780637d25a05e1461096c57806382413eac146109a757005b80633ec3e06d116103215780635535d461116102af5780635e280f11116102765780635e280f111461087e5780636352211e146108b25780636c0360eb146108d25780636ee24b91146108e75780636fc1b31e1461091757005b80635535d461146107cf57806355f804b3146107ef5780635944c7531461080f5780635a0dfe4d1461082f5780635c975abb1461086657005b806344d0a425116102f357806344d0a4251461071e5780634626402b1461074f578063487586971461076f57806352ae28791461079c578063537c1ac7146107af57005b80633ec3e06d146106b45780633f4ba83a146106d45780634047638d146106e957806342842e0e146106fe57005b806320a5a55c1161039e5780632b4085b1116103705780632b4085b11461060457806331b5b9071461063f5780633400288b1461065f57806337f1e7f21461067f5780633ccfd60b1461069f57005b806320a5a55c1461056557806321eb730b1461058557806323b872dd146105a55780632a55205a146105c557005b8063095ea7b3116103e2578063095ea7b3146104c8578063111ecdad146104e857806313137d651461050857806317442b701461051b5780631f5e13341461053d57005b806301ffc9a71461041957806306fdde031461044e578063081812fc14610470578063089cc372146104a857005b3661041757005b005b34801561042557600080fd5b50610439610434366004613f3d565b610dd8565b60405190151581526020015b60405180910390f35b34801561045a57600080fd5b50610463610de9565b6040516104459190613faa565b34801561047c57600080fd5b5061049061048b366004613fbd565b610e7b565b6040516001600160a01b039091168152602001610445565b3480156104b457600080fd5b506104176104c3366004613feb565b610ea4565b3480156104d457600080fd5b506104176104e3366004614008565b610f81565b3480156104f457600080fd5b50600454610490906001600160a01b031681565b61041761051636600461408d565b610f90565b34801561052757600080fd5b5060408051600181526002602082015201610445565b34801561054957600080fd5b50610552600181565b60405161ffff9091168152602001610445565b34801561057157600080fd5b50610417610580366004613feb565b61104b565b61059861059336600461413e565b61109c565b60405161044591906141ab565b3480156105b157600080fd5b506104176105c03660046141ed565b611155565b3480156105d157600080fd5b506105e56105e036600461422e565b6111e0565b604080516001600160a01b039093168352602083019190915201610445565b34801561061057600080fd5b5061063161061f366004614264565b60146020526000908152604090205481565b604051908152602001610445565b34801561064b57600080fd5b5061041761065a366004614374565b611267565b34801561066b57600080fd5b5061041761067a3660046143d0565b61130f565b34801561068b57600080fd5b5061063161069a366004614264565b611321565b3480156106ab57600080fd5b506104176113ac565b3480156106c057600080fd5b506104176106cf3660046143ec565b6114b7565b3480156106e057600080fd5b5061041761153e565b3480156106f557600080fd5b5061041761154e565b34801561070a57600080fd5b506104176107193660046141ed565b6115c4565b34801561072a57600080fd5b50610552610739366004614264565b60166020526000908152604090205461ffff1681565b34801561075b57600080fd5b50601254610490906001600160a01b031681565b34801561077b57600080fd5b5061078f61078a366004613fbd565b6115e4565b6040516104459190614440565b3480156107a857600080fd5b5030610490565b3480156107bb57600080fd5b506104176107ca366004613feb565b61171a565b3480156107db57600080fd5b506104636107ea366004614460565b6117ef565b3480156107fb57600080fd5b5061041761080a366004614493565b611894565b34801561081b57600080fd5b5061041761082a3660046144d4565b6118da565b34801561083b57600080fd5b5061043961084a3660046143d0565b63ffffffff919091166000908152600160205260409020541490565b34801561087257600080fd5b50600f5460ff16610439565b34801561088a57600080fd5b506104907f000000000000000000000000000000000000000000000000000000000000000081565b3480156108be57600080fd5b506104906108cd366004613fbd565b611941565b3480156108de57600080fd5b5061046361194c565b3480156108f357600080fd5b50610439610902366004613feb565b60186020526000908152604090205460ff1681565b34801561092357600080fd5b50610417610932366004613feb565b611959565b34801561094357600080fd5b50610631610952366004613feb565b6119af565b34801561096357600080fd5b506104176119f7565b34801561097857600080fd5b5061098f6109873660046143d0565b600092915050565b6040516001600160401b039091168152602001610445565b3480156109b357600080fd5b506104396109c2366004614517565b611a09565b3480156109d357600080fd5b50610417611a1e565b3480156109e857600080fd5b506104176109f7366004614008565b611a2e565b348015610a0857600080fd5b506000546001600160a01b0316610490565b348015610a2657600080fd5b50610463611bac565b348015610a3b57600080fd5b50610417610a4a366004613feb565b611bb9565b348015610a5b57600080fd5b50610463611c0a565b348015610a7057600080fd5b506000610439565b348015610a8457600080fd5b50610417610a9336600461458b565b611c19565b348015610aa457600080fd5b50604080516311f0c6d360e11b81526001602082015201610445565b348015610acc57600080fd5b50610417610adb3660046145e7565b611c24565b348015610aec57600080fd5b50610552600281565b348015610b0157600080fd5b50600254610490906001600160a01b031681565b348015610b2157600080fd5b50610417610b303660046146ac565b611dd8565b348015610b4157600080fd5b50610417610b5036600461475b565b611df0565b348015610b6157600080fd5b50610631610b70366004614790565b60016020526000908152604090205481565b348015610b8e57600080fd5b50610463610b9d3660046147ab565b611e0a565b610417610bb036600461475b565b611fb2565b348015610bc157600080fd5b50610bd5610bd036600461480b565b61213c565b6040516104459190614851565b348015610bee57600080fd5b50610417610bfd3660046143ec565b612182565b348015610c0e57600080fd5b50610463610c1d366004613fbd565b6121fd565b348015610c2e57600080fd5b50610417610c3d366004613feb565b61228a565b348015610c4e57600080fd5b5060125461043990600160a01b900460ff1681565b610417610c7136600461408d565b612310565b348015610c8257600080fd5b50610417610c91366004613feb565b61233f565b348015610ca257600080fd5b506106316107d081565b348015610cb857600080fd5b50610417610cc7366004613feb565b612395565b348015610cd857600080fd5b50610439610ce7366004614868565b612478565b348015610cf857600080fd5b50610d20610d07366004614264565b6015602052600090815260409020805460019091015482565b60408051928352602083019190915201610445565b610417610d43366004614896565b6124a6565b348015610d5457600080fd5b50610417610d63366004613feb565b6129bb565b348015610d7457600080fd5b50610439610d83366004613feb565b60176020526000908152604090205460ff1681565b348015610da457600080fd5b50610417610db3366004614374565b6129f9565b348015610dc457600080fd5b50610439610dd33660046148b9565b612a96565b6000610de382612acc565b92915050565b606060058054610df8906148d5565b80601f0160208091040260200160405190810160405280929190818152602001828054610e24906148d5565b8015610e715780601f10610e4657610100808354040283529160200191610e71565b820191906000526020600020905b815481529060010190602001808311610e5457829003601f168201915b5050505050905090565b6000610e8682612af1565b506000828152600960205260409020546001600160a01b0316610de3565b610eac612b2a565b6001600160a01b03811660009081526017602052604090205460ff1615610f355760405162461bcd60e51b815260206004820152603260248201527f57686974656c697374656520697320616c72656164792070726573656e7420696044820152711b881d1a194813d1c81dda1a5d195b1a5cdd60721b60648201526084015b60405180910390fd5b6001600160a01b038116600081815260186020526040808220805460ff19166001179055517f6c2ebc0cab7c7e90a273b687478f46a6bb556f37edd7489337f82797cedce83b9190a250565b610f8c828233612b57565b5050565b7f00000000000000000000000000000000000000000000000000000000000000006001600160a01b03163314610fdb576040516391ac5e4f60e01b8152336004820152602401610f2c565b60208701803590610ff590610ff0908a614790565b612b64565b14611033576110076020880188614790565b60405163309afaf360e21b815263ffffffff909116600482015260208801356024820152604401610f2c565b61104287878787878787612ba0565b50505050505050565b611053612b2a565b6001600160a01b038116600081815260176020526040808220805460ff19169055517fea31df18877072a072b1e8460859bca9c31e2caf9e32fcefe29a1913dc7aef4b9190a250565b6110a4613ee0565b6110bf3360408601356110ba6020880188614790565b612cff565b6000806110cb86612d5f565b90925090506110f76110e06020880188614790565b83836110f1368a90038a018a614909565b88612e9e565b805190935033907f986156872b2ee0022b9585231dbbfde457f87f8a16b6c45e1a81c54c4ad8351f61112c60208a018a614790565b6040805163ffffffff9092168252808b013560208301520160405180910390a350509392505050565b6001600160a01b03821661117f57604051633250574960e11b815260006004820152602401610f2c565b600061118c838333612fa9565b9050836001600160a01b0316816001600160a01b0316146111da576040516364283d7b60e01b81526001600160a01b0380861660048301526024820184905282166044820152606401610f2c565b50505050565b6000828152600e6020526040812080548291906001600160a01b03811690600160a01b90046001600160601b031681611234575050600d546001600160a01b03811690600160a01b90046001600160601b03165b600061271061124c6001600160601b03841689614951565b6112569190614968565b9295509193505050505b9250929050565b61126f612b2a565b6112776130a2565b60008151116112c85760405162461bcd60e51b815260206004820152601860248201527f42617365205552492063616e6e6f7420626520656d70747900000000000000006044820152606401610f2c565b60106112d482826149d2565b507fe3afa94108b5f5e82e5f6e539d161ff4b5402a85f696c67b9768ec3ae54ce366816040516113049190613faa565b60405180910390a150565b611317612b2a565b610f8c82826130c6565b601254600090600160a01b900460ff16611370576013600083600481111561134b5761134b614408565b600481111561135c5761135c614408565b815260200190815260200160002054610de3565b6014600083600481111561138657611386614408565b600481111561139757611397614408565b81526020019081526020016000205492915050565b6113b4612b2a565b6113bc613114565b6113c46130a2565b478061140b5760405162461bcd60e51b81526020600482015260166024820152754e6f2062616c616e636520746f20776974686472617760501b6044820152606401610f2c565b6000606461141a83601e614951565b6114249190614968565b905060006114328284614a91565b6012546040519192506001600160a01b03169082156108fc029083906000818181858888f1935050505015801561146d573d6000803e3d6000fd5b50600080546040516001600160a01b039091169184156108fc02918591818181858888f193505050501580156114a7573d6000803e3d6000fd5b505050506114b56001600c55565b565b6114bf612b2a565b6114c76130a2565b80601460008460048111156114de576114de614408565b60048111156114ef576114ef614408565b8152602001908152602001600020819055507fd56e643133394fb350df575988c73f700a704c0cbbd2be6640dbb3bbf6d7ab718282604051611532929190614aa4565b60405180910390a15050565b611546612b2a565b6114b561313e565b611556612b2a565b61155e6130a2565b6012805460ff600160a01b808304821615810260ff60a01b1990931692909217928390556040517fa81e445dac2343503dc87e4663774817434721db7d985310a6959766e6d4480e936115ba9390049091161515815260200190565b60405180910390a1565b6115df83838360405180602001604052806000815250611dd8565b505050565b600080821180156115f757506107d08211155b61163b5760405162461bcd60e51b8152602060048201526015602482015274546f6b656e204944206f7574206f662072616e676560581b6044820152606401610f2c565b60028211158061165a57506103e9821015801561165a57506103ea8211155b1561166757506004919050565b600382101580156116795750600f8211155b8061169357506103eb821015801561169357506103f78211155b156116a057506003919050565b601082101580156116b2575060288211155b806116cc57506103f882101580156116cc57506104108211155b156116d957506002919050565b602982101580156116eb5750605a8211155b806117055750610411821015801561170557506104428211155b1561171257506001919050565b506000919050565b611722612b2a565b61172a6130a2565b6001600160a01b0381166117935760405162461bcd60e51b815260206004820152602a60248201527f4e65772074726561737572792077616c6c65742063616e6e6f74206265207a65604482015269726f206164647265737360b01b6064820152608401610f2c565b6012546040516001600160a01b038084169216907f419d718138b0b65d09976f881eed8b8d7075d4b6092f74af0a0ec9b3417cdd1290600090a3601280546001600160a01b0319166001600160a01b0392909216919091179055565b600360209081526000928352604080842090915290825290208054611813906148d5565b80601f016020809104026020016040519081016040528092919081815260200182805461183f906148d5565b801561188c5780601f106118615761010080835404028352916020019161188c565b820191906000526020600020905b81548152906001019060200180831161186f57829003601f168201915b505050505081565b61189c612b2a565b600b6118a9828483614abf565b507ff9c7803e94e0d3c02900d8a90893a6d5e90dd04d32a4cfe825520f82bf9f32f6600b6040516115329190614b7e565b6118e2612b2a565b6118ea6130a2565b6118f583838361318b565b6040516001600160601b03821681526001600160a01b038316907f23813f5ad446622633cb58c75ceef768a2111751b0f30477a63e06fcaedcff609060200160405180910390a2505050565b6000610de382612af1565b60108054611813906148d5565b611961612b2a565b600480546001600160a01b0319166001600160a01b0383169081179091556040519081527ff0be4f1e87349231d80c36b33f9e8639658eeaf474014dee15a3e6a4d441419790602001611304565b60006001600160a01b0382166119db576040516322718ad960e21b815260006004820152602401610f2c565b506001600160a01b031660009081526008602052604090205490565b6119ff612b2a565b6114b5600061324d565b6001600160a01b03811630145b949350505050565b611a26612b2a565b6114b561329d565b611a36612b2a565b611a3e6130a2565b6000818152601a602052604090205460ff1615611a975760405162461bcd60e51b8152602060048201526017602482015276151bdad95b88125108185b1c9958591e481b5a5b9d1959604a1b6044820152606401610f2c565b611aa460026107d0614968565b601b54611ab2906001614c0e565b1115611ad05760405162461bcd60e51b8152600401610f2c90614c21565b611ad9816132da565b611b185760405162461bcd60e51b815260206004820152601060248201526f125b9d985b1a59081d1bdad95b88125160821b6044820152606401610f2c565b611b2282826133a3565b60008181526019602090815260408083208054600160ff199182168117909255601a9093529083208054909216179055601b805491611b6083614c63565b9190505550816001600160a01b03167f30385c845b448a36257a6a1716e6ad2e1bc2cbe333cde1e69fe849ad6511adfe82604051611ba091815260200190565b60405180910390a25050565b60118054611813906148d5565b611bc1612b2a565b6001600160a01b038116600081815260186020526040808220805460ff19169055517f1543483b6a5b05d328810ada10302f9896698193def3bdb28d6e66c916fd811e9190a250565b606060068054610df8906148d5565b610f8c3383836133bd565b611c2c612b2a565b611c346130a2565b8051611c4360026107d0614968565b81601b54611c519190614c0e565b1115611c6f5760405162461bcd60e51b8152600401610f2c90614c21565b60005b818110156111da576000838281518110611c8e57611c8e614c7c565b6020908102919091018101516000818152601a90925260409091205490915060ff1615611cf75760405162461bcd60e51b8152602060048201526017602482015276151bdad95b88125108185b1c9958591e481b5a5b9d1959604a1b6044820152606401610f2c565b611d00816132da565b611d3f5760405162461bcd60e51b815260206004820152601060248201526f125b9d985b1a59081d1bdad95b88125160821b6044820152606401610f2c565b611d4985826133a3565b60008181526019602090815260408083208054600160ff199182168117909255601a9093529083208054909216179055601b805491611d8783614c63565b9190505550846001600160a01b03167f30385c845b448a36257a6a1716e6ad2e1bc2cbe333cde1e69fe849ad6511adfe82604051611dc791815260200190565b60405180910390a250600101611c72565b611de3848484611155565b6111da338585858561345c565b611df8612b2a565b610f8c611e058284614c92565b613586565b63ffffffff8416600090815260036020908152604080832061ffff87168452909152812080546060929190611e3e906148d5565b80601f0160208091040260200160405190810160405280929190818152602001828054611e6a906148d5565b8015611eb75780601f10611e8c57610100808354040283529160200191611eb7565b820191906000526020600020905b815481529060010190602001808311611e9a57829003601f168201915b505050505090508051600003611f075783838080601f016020809104026020016040519081016040528093929190818152602001838380828437600092019190915250929450611a169350505050565b6000839003611f17579050611a16565b60028310611f9557611f5e84848080601f01602080910402602001604051908101604052809392919081815260200183838082843760009201919091525061368d92505050565b80611f6c8460028188614d5b565b604051602001611f7e93929190614d85565b604051602081830303815290604052915050611a16565b8383604051639a6d49cd60e01b8152600401610f2c929190614dd6565b60005b818110156120bb5736838383818110611fd057611fd0614c7c565b9050602002810190611fe29190614dea565b9050612015611ff46020830183614790565b602083013563ffffffff919091166000908152600160205260409020541490565b61201f57506120b3565b3063d045a0dc60c08301358360a081013561203e610100830183614e0b565b61204f610100890160e08a01613feb565b61205d6101208a018a614e0b565b6040518963ffffffff1660e01b815260040161207f9796959493929190614e66565b6000604051808303818588803b15801561209857600080fd5b505af11580156120ac573d6000803e3d6000fd5b5050505050505b600101611fb5565b50336001600160a01b0316638e9e70996040518163ffffffff1660e01b8152600401600060405180830381865afa1580156120fa573d6000803e3d6000fd5b505050506040513d6000823e601f3d908101601f191682016040526121229190810190614eec565b604051638351eea760e01b8152600401610f2c9190613faa565b604080518082019091526000808252602082015260008061215c85612d5f565b90925090506121796121716020870187614790565b8383876136b9565b95945050505050565b61218a612b2a565b6121926130a2565b80601360008460048111156121a9576121a9614408565b60048111156121ba576121ba614408565b8152602001908152602001600020819055507f8c59f732406ee325917255f98285660fde69dcc4e66a1f52ed229009f7c0c4a88282604051611532929190614aa4565b606060008211801561221157506107d08211155b6122555760405162461bcd60e51b8152602060048201526015602482015274546f6b656e204944206f7574206f662072616e676560581b6044820152606401610f2c565b601061226083613791565b601160405160200161227493929190614fcc565b6040516020818303038152906040529050919050565b612292612b2a565b60405163ca5eb5e160e01b81526001600160a01b0382811660048301527f0000000000000000000000000000000000000000000000000000000000000000169063ca5eb5e190602401600060405180830381600087803b1580156122f557600080fd5b505af1158015612309573d6000803e3d6000fd5b5050505050565b3330146123305760405163029a949d60e31b815260040160405180910390fd5b61104287878787878787611033565b612347612b2a565b600280546001600160a01b0319166001600160a01b0383169081179091556040519081527fd48d879cef83a1c0bdda516f27b13ddb1b3f8bbac1c9e1511bb2a659c242776090602001611304565b61239d612b2a565b6001600160a01b03811660009081526018602052604090205460ff161561242c5760405162461bcd60e51b815260206004820152603a60248201527f57686974656c697374656520697320616c72656164792070726573656e74206960448201527f6e2074686520626561726c69737465642077686974656c6973740000000000006064820152608401610f2c565b6001600160a01b038116600081815260176020526040808220805460ff19166001179055517f2689d932390f88bfa26c4b12d4ac16f4538c0b020196ef1e57b4af702d42181c9190a250565b6001600160a01b039182166000908152600a6020908152604080832093909416825291909152205460ff1690565b6124ae613114565b6124b66130a2565b6000821180156124c7575060148211155b6125095760405162461bcd60e51b8152602060048201526013602482015272125b9d985b1a59081b5a5b9d08185b5bdd5b9d606a1b6044820152606401610f2c565b601254600160a01b900460ff166125fa57816001146125815760405162461bcd60e51b815260206004820152602e60248201527f507269766174652073616c652063616e206f6e6c79206d696e74206f6e65207460448201526d6f6b656e20617420612074696d6560901b6064820152608401610f2c565b3360009081526017602052604090205460ff16806125ae57503360009081526018602052604090205460ff165b6125fa5760405162461bcd60e51b815260206004820181905260248201527f4e6f742077686974656c697374656420666f7220707269766174652073616c656044820152606401610f2c565b601254600090600160a01b900460ff16612649576013600083600481111561262457612624614408565b600481111561263557612635614408565b815260200190815260200160002054612680565b6014600083600481111561265f5761265f614408565b600481111561267057612670614408565b8152602001908152602001600020545b9050600061268e8483614951565b9050803410156126d75760405162461bcd60e51b8152602060048201526014602482015273125b9cdd59999a58da595b9d081c185e5b595b9d60621b6044820152606401610f2c565b600080601660008660048111156126f0576126f0614408565b600481111561270157612701614408565b8152602081019190915260400160009081205461ffff169060159087600481111561272e5761272e614408565b600481111561273f5761273f614408565b81526020019081526020016000206000015461275b9190614c0e565b905060006015600087600481111561277557612775614408565b600481111561278657612786614408565b815260200190815260200160002060010154601560008860048111156127ae576127ae614408565b60048111156127bf576127bf614408565b8152602001908152602001600020600001546127db9190614c0e565b90505b86831080156127ec57508082105b15612937575b60008281526019602052604090205460ff168061281d57506000828152601a602052604090205460ff165b15612837578161282c81614c63565b9250508082106127f2575b808210156129375761284933836133a3565b6000828152601a602052604090819020805460ff191660011790555133907f30385c845b448a36257a6a1716e6ad2e1bc2cbe333cde1e69fe849ad6511adfe906128969085815260200190565b60405180910390a2826128a881614c63565b935050601660008760048111156128c1576128c1614408565b60048111156128d2576128d2614408565b81526020810191909152604001600020805461ffff198116600161ffff928316810190921617909155601b8054909101905561291160026107d0614968565b601b5411156129325760405162461bcd60e51b8152600401610f2c90614c21565b6127de565b8683146129ac5760405162461bcd60e51b815260206004820152603760248201527f4d696e74696e6720636f756c64206e6f7420626520636f6d706c65746564206660448201527f6f72207468652072657175657374656420616d6f756e740000000000000000006064820152608401610f2c565b5050505050610f8c6001600c55565b6129c3612b2a565b6001600160a01b0381166129ed57604051631e4fbdf760e01b815260006004820152602401610f2c565b6129f68161324d565b50565b612a01612b2a565b612a096130a2565b6000815111612a5a5760405162461bcd60e51b815260206004820152601e60248201527f46696c6520657874656e73696f6e2063616e6e6f7420626520656d70747900006044820152606401610f2c565b6011612a6682826149d2565b507f95c0419535f434fa69d4e8cbecdd93dbb4080262f09911d2ca00196d33fcda6f816040516113049190613faa565b6000602082018035906001908390612aae9086614790565b63ffffffff1681526020810191909152604001600020541492915050565b60006001600160e01b0319821663152a902d60e11b1480610de35750610de382613823565b6000818152600760205260408120546001600160a01b031680610de357604051637e27328960e01b815260048101849052602401610f2c565b6000546001600160a01b031633146114b55760405163118cdaa760e01b8152336004820152602401610f2c565b6115df8383836001613873565b63ffffffff811660009081526001602052604081205480610de35760405163f6ff4fb760e01b815263ffffffff84166004820152602401610f2c565b6000612bb2612baf8787613979565b90565b90506000612bc08787613998565b9050612bd98282612bd460208d018d614790565b6139a8565b6040861115612c9d576000612c13612bf760608c0160408d0161500a565b612c0460208d018d614790565b612c0e8b8b6139b2565b6139fd565b604051633e5ac80960e11b81529091506001600160a01b037f00000000000000000000000000000000000000000000000000000000000000001690637cb5901290612c699086908d906000908790600401615027565b600060405180830381600087803b158015612c8357600080fd5b505af1158015612c97573d6000803e3d6000fd5b50505050505b6001600160a01b038216887f7883fa30ea56937810e36990b0bbb8d629d0cf59f68baf8431ff657cebe7eef5612cd660208d018d614790565b6040805163ffffffff9092168252602082018690520160405180910390a3505050505050505050565b612d0882611941565b6001600160a01b0316836001600160a01b031614612d565782612d2a83611941565b604051634342715b60e11b81526001600160a01b03928316600482015291166024820152604401610f2c565b6115df82613a2c565b6060806020830135612d8457604051631e4ec46b60e01b815260040160405180910390fd5b6000612dda60208501356040860135612da06080880188614e0b565b8080601f016020809104026020016040519081016040528093929190818152602001838380828437600092019190915250613a6792505050565b9093509050600081612ded576001612df0565b60025b9050612e10612e026020870187614790565b82610b9d6060890189614e0b565b6004549093506001600160a01b03168015612e965760405163043a78eb60e01b81526001600160a01b0382169063043a78eb90612e539088908890600401615062565b602060405180830381865afa158015612e70573d6000803e3d6000fd5b505050506040513d601f19601f82011682018060405250810190612e949190615087565b505b505050915091565b612ea6613ee0565b6000612eb58460000151613acc565b602085015190915015612ecf57612ecf8460200151613af4565b7f00000000000000000000000000000000000000000000000000000000000000006001600160a01b0316632637a450826040518060a001604052808b63ffffffff168152602001612f1f8c612b64565b81526020018a815260200189815260200160008960200151111515815250866040518463ffffffff1660e01b8152600401612f5b9291906150a4565b60806040518083038185885af1158015612f79573d6000803e3d6000fd5b50505050506040513d601f19601f82011682018060405250810190612f9e919061514d565b979650505050505050565b6000828152600760205260408120546001600160a01b0390811690831615612fd657612fd6818486613bd6565b6001600160a01b0381161561301457612ff3600085600080613873565b6001600160a01b038116600090815260086020526040902080546000190190555b6001600160a01b03851615613043576001600160a01b0385166000908152600860205260409020805460010190555b60008481526007602052604080822080546001600160a01b0319166001600160a01b0389811691821790925591518793918516917fddf252ad1be2c89b69c2b068fc378daa952ba7f163c4a11628f55a4df523b3ef91a4949350505050565b600f5460ff16156114b55760405163d93c066560e01b815260040160405180910390fd5b63ffffffff8216600081815260016020908152604091829020849055815192835282018390527f238399d427b947898edb290f5ff0f9109849b1c3ba196a42e35f00c50a54b98b9101611532565b6002600c540361313757604051633ee5aeb560e01b815260040160405180910390fd5b6002600c55565b613146613c3a565b600f805460ff191690557f5db9ee0a495bf2e6ff9c91a7834c1ba4fdd244a5e8aa4e537bd38aeae4b073aa335b6040516001600160a01b0390911681526020016115ba565b6127106001600160601b0382168110156131d15760405163dfd1fc1b60e01b8152600481018590526001600160601b038316602482015260448101829052606401610f2c565b6001600160a01b03831661320257604051634b4f842960e11b81526004810185905260006024820152604401610f2c565b506040805180820182526001600160a01b0393841681526001600160601b0392831660208083019182526000968752600e90529190942093519051909116600160a01b029116179055565b600080546001600160a01b038381166001600160a01b0319831681178455604051919092169283917f8be0079c531659141344cd1fd0a4f28419497f9722a3daafe3b4186f6b6457e09190a35050565b6132a56130a2565b600f805460ff191660011790557f62e78cea01bee320cd4e420270b5ea74000d11b0c9f74754ebdbfc544b05a2586131733390565b6000805b600460ff82161161339a576000601560008360ff16600481111561330457613304614408565b600481111561331557613315614408565b600481111561332657613326614408565b8152602001908152602001600020604051806040016040529081600082015481526020016001820154815250509050806000015184101580156133785750602081015181516133759190614c0e565b84105b15613387575060019392505050565b508061339281615197565b9150506132de565b50600092915050565b610f8c828260405180602001604052806000815250613c5d565b6001600160a01b0382166133ef57604051630b61174360e31b81526001600160a01b0383166004820152602401610f2c565b6001600160a01b038381166000818152600a6020908152604080832094871680845294825291829020805460ff191686151590811790915591519182527f17307eab39ab6107e8899845ad3d59bd9653f200f220920489ca2b5937696c31910160405180910390a3505050565b6001600160a01b0383163b1561230957604051630a85bd0160e11b81526001600160a01b0384169063150b7a029061349e9088908890879087906004016151b6565b6020604051808303816000875af19250505080156134d9575060408051601f3d908101601f191682019092526134d6918101906151e9565b60015b613542573d808015613507576040519150601f19603f3d011682016040523d82523d6000602084013e61350c565b606091505b50805160000361353a57604051633250574960e11b81526001600160a01b0385166004820152602401610f2c565b805181602001fd5b6001600160e01b03198116630a85bd0160e11b1461357e57604051633250574960e11b81526001600160a01b0385166004820152602401610f2c565b505050505050565b60005b815181101561365d576135b88282815181106135a7576135a7614c7c565b60200260200101516040015161368d565b8181815181106135ca576135ca614c7c565b602002602001015160400151600360008484815181106135ec576135ec614c7c565b60200260200101516000015163ffffffff1663ffffffff168152602001908152602001600020600084848151811061362657613626614c7c565b60200260200101516020015161ffff1661ffff168152602001908152602001600020908161365491906149d2565b50600101613589565b507fbe4864a8e820971c0247f5992e2da559595f7bf076a21cb5928d443d2a13b674816040516113049190615206565b600281015161ffff8116600314610f8c5781604051639a6d49cd60e01b8152600401610f2c9190613faa565b60408051808201909152600080825260208201527f00000000000000000000000000000000000000000000000000000000000000006001600160a01b031663ddc28c586040518060a001604052808863ffffffff16815260200161371c89612b64565b8152602001878152602001868152602001851515815250306040518363ffffffff1660e01b81526004016137519291906150a4565b6040805180830381865afa15801561376d573d6000803e3d6000fd5b505050506040513d601f19601f820116820180604052508101906121799190615291565b6060600061379e83613c75565b60010190506000816001600160401b038111156137bd576137bd61427f565b6040519080825280601f01601f1916602001820160405280156137e7576020820181803683370190505b5090508181016020015b600019016f181899199a1a9b1b9c1cb0b131b232b360811b600a86061a8153600a85049450846137f157509392505050565b60006001600160e01b031982166380ac58cd60e01b148061385457506001600160e01b03198216635b5e139f60e01b145b80610de357506301ffc9a760e01b6001600160e01b0319831614610de3565b808061388757506001600160a01b03821615155b1561394957600061389784612af1565b90506001600160a01b038316158015906138c35750826001600160a01b0316816001600160a01b031614155b80156138d657506138d48184612478565b155b156138ff5760405163a9fbf51f60e01b81526001600160a01b0384166004820152602401610f2c565b81156139475783856001600160a01b0316826001600160a01b03167f8c5be1e5ebec7d5bd14f71427d1e84f3dd0314c0f7b2291e5b200ac8c7c3b92560405160405180910390a45b505b5050600090815260096020526040902080546001600160a01b0319166001600160a01b0392909216919091179055565b60006139886020828486614d5b565b613991916152ad565b9392505050565b6000613988604060208486614d5b565b6115df8383613d4d565b60606139c18260408186614d5b565b8080601f016020809104026020016040519081016040528093929190818152602001838380828437600092019190915250929695505050505050565b6060838383604051602001613a14939291906152cb565b60405160208183030381529060405290509392505050565b6000613a3b6000836000612fa9565b90506001600160a01b038116610f8c57604051637e27328960e01b815260048101839052602401610f2c565b8051606090151580613a9b576040805160208101879052908101859052606001604051602081830303815290604052613ac2565b84843385604051602001613ab29493929190615315565b6040516020818303038152906040525b9150935093915050565b6000813414613af0576040516304fb820960e51b8152346004820152602401610f2c565b5090565b60007f00000000000000000000000000000000000000000000000000000000000000006001600160a01b031663e4fe1d946040518163ffffffff1660e01b8152600401602060405180830381865afa158015613b54573d6000803e3d6000fd5b505050506040513d601f19601f82011682018060405250810190613b789190615349565b90506001600160a01b038116613ba1576040516329b99a9560e11b815260040160405180910390fd5b610f8c6001600160a01b038216337f000000000000000000000000000000000000000000000000000000000000000085613db2565b613be1838383613e0c565b6115df576001600160a01b038316613c0f57604051637e27328960e01b815260048101829052602401610f2c565b60405163177e802f60e01b81526001600160a01b038316600482015260248101829052604401610f2c565b600f5460ff166114b557604051638dfc202b60e01b815260040160405180910390fd5b613c678383613d4d565b6115df33600085858561345c565b60008072184f03e93ff9f4daa797ed6e38ed64bf6a1f0160401b8310613cb45772184f03e93ff9f4daa797ed6e38ed64bf6a1f0160401b830492506040015b6d04ee2d6d415b85acef81000000008310613ce0576d04ee2d6d415b85acef8100000000830492506020015b662386f26fc100008310613cfe57662386f26fc10000830492506010015b6305f5e1008310613d16576305f5e100830492506008015b6127108310613d2a57612710830492506004015b60648310613d3c576064830492506002015b600a8310610de35760010192915050565b6001600160a01b038216613d7757604051633250574960e11b815260006004820152602401610f2c565b6000613d8583836000612fa9565b90506001600160a01b038116156115df576040516339e3563760e11b815260006004820152602401610f2c565b604080516001600160a01b0385811660248301528416604482015260648082018490528251808303909101815260849091019091526020810180516001600160e01b03166323b872dd60e01b1790526111da908590613e6f565b60006001600160a01b03831615801590611a165750826001600160a01b0316846001600160a01b03161480613e465750613e468484612478565b80611a165750506000908152600960205260409020546001600160a01b03908116911614919050565b600080602060008451602086016000885af180613e92576040513d6000823e3d81fd5b50506000513d91508115613eaa578060011415613eb7565b6001600160a01b0384163b155b156111da57604051635274afe760e01b81526001600160a01b0385166004820152602401610f2c565b60405180606001604052806000801916815260200160006001600160401b03168152602001613f22604051806040016040528060008152602001600081525090565b905290565b6001600160e01b0319811681146129f657600080fd5b600060208284031215613f4f57600080fd5b813561399181613f27565b60005b83811015613f75578181015183820152602001613f5d565b50506000910152565b60008151808452613f96816020860160208601613f5a565b601f01601f19169290920160200192915050565b6020815260006139916020830184613f7e565b600060208284031215613fcf57600080fd5b5035919050565b6001600160a01b03811681146129f657600080fd5b600060208284031215613ffd57600080fd5b813561399181613fd6565b6000806040838503121561401b57600080fd5b823561402681613fd6565b946020939093013593505050565b60006060828403121561404657600080fd5b50919050565b60008083601f84011261405e57600080fd5b5081356001600160401b0381111561407557600080fd5b60208301915083602082850101111561126057600080fd5b600080600080600080600060e0888a0312156140a857600080fd5b6140b28989614034565b96506060880135955060808801356001600160401b03808211156140d557600080fd5b6140e18b838c0161404c565b909750955060a08a013591506140f682613fd6565b90935060c0890135908082111561410c57600080fd5b506141198a828b0161404c565b989b979a50959850939692959293505050565b600060c0828403121561404657600080fd5b6000806000838503608081121561415457600080fd5b84356001600160401b0381111561416a57600080fd5b6141768782880161412c565b9450506040601f198201121561418b57600080fd5b5060208401915060608401356141a081613fd6565b809150509250925092565b6000608082019050825182526001600160401b03602084015116602083015260408301516141e6604084018280518252602090810151910152565b5092915050565b60008060006060848603121561420257600080fd5b833561420d81613fd6565b9250602084013561421d81613fd6565b929592945050506040919091013590565b6000806040838503121561424157600080fd5b50508035926020909101359150565b80356005811061425f57600080fd5b919050565b60006020828403121561427657600080fd5b61399182614250565b634e487b7160e01b600052604160045260246000fd5b604080519081016001600160401b03811182821017156142b7576142b761427f565b60405290565b604051606081016001600160401b03811182821017156142b7576142b761427f565b604051601f8201601f191681016001600160401b03811182821017156143075761430761427f565b604052919050565b60006001600160401b038211156143285761432861427f565b50601f01601f191660200190565b60006143496143448461430f565b6142df565b905082815283838301111561435d57600080fd5b828260208301376000602084830101529392505050565b60006020828403121561438657600080fd5b81356001600160401b0381111561439c57600080fd5b8201601f810184136143ad57600080fd5b611a1684823560208401614336565b803563ffffffff8116811461425f57600080fd5b600080604083850312156143e357600080fd5b614026836143bc565b600080604083850312156143ff57600080fd5b61402683614250565b634e487b7160e01b600052602160045260246000fd5b6005811061443c57634e487b7160e01b600052602160045260246000fd5b9052565b60208101610de3828461441e565b803561ffff8116811461425f57600080fd5b6000806040838503121561447357600080fd5b61447c836143bc565b915061448a6020840161444e565b90509250929050565b600080602083850312156144a657600080fd5b82356001600160401b038111156144bc57600080fd5b6144c88582860161404c565b90969095509350505050565b6000806000606084860312156144e957600080fd5b8335925060208401356144fb81613fd6565b915060408401356001600160601b03811681146141a057600080fd5b60008060008060a0858703121561452d57600080fd5b6145378686614034565b935060608501356001600160401b0381111561455257600080fd5b61455e8782880161404c565b909450925050608085013561457281613fd6565b939692955090935050565b80151581146129f657600080fd5b6000806040838503121561459e57600080fd5b82356145a981613fd6565b915060208301356145b98161457d565b809150509250929050565b60006001600160401b038211156145dd576145dd61427f565b5060051b60200190565b600080604083850312156145fa57600080fd5b823561460581613fd6565b91506020838101356001600160401b0381111561462157600080fd5b8401601f8101861361463257600080fd5b8035614640614344826145c4565b81815260059190911b8201830190838101908883111561465f57600080fd5b928401925b8284101561467d57833582529284019290840190614664565b80955050505050509250929050565b600082601f83011261469d57600080fd5b61399183833560208501614336565b600080600080608085870312156146c257600080fd5b84356146cd81613fd6565b935060208501356146dd81613fd6565b92506040850135915060608501356001600160401b038111156146ff57600080fd5b61470b8782880161468c565b91505092959194509250565b60008083601f84011261472957600080fd5b5081356001600160401b0381111561474057600080fd5b6020830191508360208260051b850101111561126057600080fd5b6000806020838503121561476e57600080fd5b82356001600160401b0381111561478457600080fd5b6144c885828601614717565b6000602082840312156147a257600080fd5b613991826143bc565b600080600080606085870312156147c157600080fd5b6147ca856143bc565b93506147d86020860161444e565b925060408501356001600160401b038111156147f357600080fd5b6147ff8782880161404c565b95989497509550505050565b6000806040838503121561481e57600080fd5b82356001600160401b0381111561483457600080fd5b6148408582860161412c565b92505060208301356145b98161457d565b815181526020808301519082015260408101610de3565b6000806040838503121561487b57600080fd5b823561488681613fd6565b915060208301356145b981613fd6565b600080604083850312156148a957600080fd5b8235915061448a60208401614250565b6000606082840312156148cb57600080fd5b6139918383614034565b600181811c908216806148e957607f821691505b60208210810361404657634e487b7160e01b600052602260045260246000fd5b60006040828403121561491b57600080fd5b614923614295565b82358152602083013560208201528091505092915050565b634e487b7160e01b600052601160045260246000fd5b8082028115828204841417610de357610de361493b565b60008261498557634e487b7160e01b600052601260045260246000fd5b500490565b601f8211156115df576000816000526020600020601f850160051c810160208610156149b35750805b601f850160051c820191505b8181101561357e578281556001016149bf565b81516001600160401b038111156149eb576149eb61427f565b6149ff816149f984546148d5565b8461498a565b602080601f831160018114614a345760008415614a1c5750858301515b600019600386901b1c1916600185901b17855561357e565b600085815260208120601f198616915b82811015614a6357888601518255948401946001909101908401614a44565b5085821015614a815787850151600019600388901b60f8161c191681555b5050505050600190811b01905550565b81810381811115610de357610de361493b565b60408101614ab2828561441e565b8260208301529392505050565b6001600160401b03831115614ad657614ad661427f565b614aea83614ae483546148d5565b8361498a565b6000601f841160018114614b1e5760008515614b065750838201355b600019600387901b1c1916600186901b178355612309565b600083815260209020601f19861690835b82811015614b4f5786850135825560209485019460019092019101614b2f565b5086821015614b6c5760001960f88860031b161c19848701351681555b505060018560011b0183555050505050565b6000602080835260008454614b92816148d5565b8060208701526040600180841660008114614bb45760018114614bd057614c00565b60ff19851660408a0152604084151560051b8a01019550614c00565b89600052602060002060005b85811015614bf75781548b8201860152908301908801614bdc565b8a016040019650505b509398975050505050505050565b80820180821115610de357610de361493b565b60208082526022908201527f4578636565647320636861696e2773206d617820696e697469616c20737570706040820152616c7960f01b606082015260800190565b600060018201614c7557614c7561493b565b5060010190565b634e487b7160e01b600052603260045260246000fd5b6000614ca0614344846145c4565b80848252602080830192508560051b850136811115614cbe57600080fd5b855b81811015614d4f5780356001600160401b0380821115614ce05760008081fd5b818901915060608236031215614cf65760008081fd5b614cfe6142bd565b614d07836143bc565b8152614d1486840161444e565b8682015260408084013583811115614d2c5760008081fd5b614d383682870161468c565b918301919091525087525050938201938201614cc0565b50919695505050505050565b60008085851115614d6b57600080fd5b83861115614d7857600080fd5b5050820193919092039150565b60008451614d97818460208901613f5a565b8201838582376000930192835250909392505050565b81835281816020850137506000828201602090810191909152601f909101601f19169091010190565b602081526000611a16602083018486614dad565b6000823561013e19833603018112614e0157600080fd5b9190910192915050565b6000808335601e19843603018112614e2257600080fd5b8301803591506001600160401b03821115614e3c57600080fd5b60200191503681900382131561126057600080fd5b6001600160401b03811681146129f657600080fd5b63ffffffff614e74896143bc565b1681526020880135602082015260006040890135614e9181614e51565b6001600160401b03811660408401525087606083015260e06080830152614ebc60e083018789614dad565b6001600160a01b03861660a084015282810360c0840152614ede818587614dad565b9a9950505050505050505050565b600060208284031215614efe57600080fd5b81516001600160401b03811115614f1457600080fd5b8201601f81018413614f2557600080fd5b8051614f336143448261430f565b818152856020838501011115614f4857600080fd5b612179826020830160208601613f5a565b60008154614f66816148d5565b60018281168015614f7e5760018114614f9357614fc2565b60ff1984168752821515830287019450614fc2565b8560005260208060002060005b85811015614fb95781548a820152908401908201614fa0565b50505082870194505b5050505092915050565b6000614fd88286614f59565b6963756c742d626561722d60b01b81528451614ffb81600a840160208901613f5a565b612f9e600a8284010186614f59565b60006020828403121561501c57600080fd5b813561399181614e51565b60018060a01b038516815283602082015261ffff831660408201526080606082015260006150586080830184613f7e565b9695505050505050565b6040815260006150756040830185613f7e565b82810360208401526121798185613f7e565b60006020828403121561509957600080fd5b81516139918161457d565b6040815263ffffffff8351166040820152602083015160608201526000604084015160a060808401526150da60e0840182613f7e565b90506060850151603f198483030160a08501526150f78282613f7e565b60809690960151151560c08501525050506001600160a01b039190911660209091015290565b60006040828403121561512f57600080fd5b615137614295565b9050815181526020820151602082015292915050565b60006080828403121561515f57600080fd5b6151676142bd565b82518152602083015161517981614e51565b602082015261518b846040850161511d565b60408201529392505050565b600060ff821660ff81036151ad576151ad61493b565b60010192915050565b6001600160a01b038581168252841660208201526040810183905260806060820181905260009061505890830184613f7e565b6000602082840312156151fb57600080fd5b815161399181613f27565b600060208083018184528085518083526040925060408601915060408160051b87010184880160005b8381101561528357888303603f190185528151805163ffffffff1684528781015161ffff1688850152860151606087850181905261526f81860183613f7e565b96890196945050509086019060010161522f565b509098975050505050505050565b6000604082840312156152a357600080fd5b613991838361511d565b80356020831015610de357600019602084900360031b1b1692915050565b60c084901b6001600160c01b031916815260e083901b6001600160e01b0319166008820152815160009061530681600c850160208701613f5a565b91909101600c01949350505050565b84815283602082015282604082015260008251615339816060850160208701613f5a565b9190910160600195945050505050565b60006020828403121561535b57600080fd5b815161399181613fd656fea2646970667358221220ba67ed54b688e69515ad197b951b8f3ffecbedabeb997b7b674ad02fa769443a64736f6c63430008160033",
  "devdoc": {
    "errors": {
      "ERC2981InvalidDefaultRoyalty(uint256,uint256)": [
        {
          "details": "The default royalty set is invalid (eg. (numerator / denominator) >= 1)."
        }
      ],
      "ERC2981InvalidDefaultRoyaltyReceiver(address)": [
        {
          "details": "The default royalty receiver is invalid."
        }
      ],
      "ERC2981InvalidTokenRoyalty(uint256,uint256,uint256)": [
        {
          "details": "The royalty set for an specific `tokenId` is invalid (eg. (numerator / denominator) >= 1)."
        }
      ],
      "ERC2981InvalidTokenRoyaltyReceiver(uint256,address)": [
        {
          "details": "The royalty receiver for `tokenId` is invalid."
        }
      ],
      "ERC721IncorrectOwner(address,uint256,address)": [
        {
          "details": "Indicates an error related to the ownership over a particular token. Used in transfers.",
          "params": {
            "owner": "Address of the current owner of a token.",
            "sender": "Address whose tokens are being transferred.",
            "tokenId": "Identifier number of a token."
          }
        }
      ],
      "ERC721InsufficientApproval(address,uint256)": [
        {
          "details": "Indicates a failure with the `operator`s approval. Used in transfers.",
          "params": {
            "operator": "Address that may be allowed to operate on tokens without being their owner.",
            "tokenId": "Identifier number of a token."
          }
        }
      ],
      "ERC721InvalidApprover(address)": [
        {
          "details": "Indicates a failure with the `approver` of a token to be approved. Used in approvals.",
          "params": {
            "approver": "Address initiating an approval operation."
          }
        }
      ],
      "ERC721InvalidOperator(address)": [
        {
          "details": "Indicates a failure with the `operator` to be approved. Used in approvals.",
          "params": {
            "operator": "Address that may be allowed to operate on tokens without being their owner."
          }
        }
      ],
      "ERC721InvalidOwner(address)": [
        {
          "details": "Indicates that an address can't be an owner. For example, `address(0)` is a forbidden owner in ERC-20. Used in balance queries.",
          "params": {
            "owner": "Address of the current owner of a token."
          }
        }
      ],
      "ERC721InvalidReceiver(address)": [
        {
          "details": "Indicates a failure with the token `receiver`. Used in transfers.",
          "params": {
            "receiver": "Address to which tokens are being transferred."
          }
        }
      ],
      "ERC721InvalidSender(address)": [
        {
          "details": "Indicates a failure with the token `sender`. Used in transfers.",
          "params": {
            "sender": "Address whose tokens are being transferred."
          }
        }
      ],
      "ERC721NonexistentToken(uint256)": [
        {
          "details": "Indicates a `tokenId` whose `owner` is the zero address.",
          "params": {
            "tokenId": "Identifier number of a token."
          }
        }
      ],
      "EnforcedPause()": [
        {
          "details": "The operation failed because the contract is paused."
        }
      ],
      "ExpectedPause()": [
        {
          "details": "The operation failed because the contract is not paused."
        }
      ],
      "OwnableInvalidOwner(address)": [
        {
          "details": "The owner is not a valid owner account. (eg. `address(0)`)"
        }
      ],
      "OwnableUnauthorizedAccount(address)": [
        {
          "details": "The caller account is not authorized to perform an operation."
        }
      ],
      "ReentrancyGuardReentrantCall()": [
        {
          "details": "Unauthorized reentrant call."
        }
      ],
      "SafeERC20FailedOperation(address)": [
        {
          "details": "An operation with an ERC-20 token failed."
        }
      ]
    },
    "events": {
      "Approval(address,address,uint256)": {
        "details": "Emitted when `owner` enables `approved` to manage the `tokenId` token."
      },
      "ApprovalForAll(address,address,bool)": {
        "details": "Emitted when `owner` enables or disables (`approved`) `operator` to manage all of its assets."
      },
      "Paused(address)": {
        "details": "Emitted when the pause is triggered by `account`."
      },
      "PreCrimeSet(address)": {
        "details": "Emitted when the preCrime contract address is set.",
        "params": {
          "preCrimeAddress": "The address of the preCrime contract."
        }
      },
      "Transfer(address,address,uint256)": {
        "details": "Emitted when `tokenId` token is transferred from `from` to `to`."
      },
      "Unpaused(address)": {
        "details": "Emitted when the pause is lifted by `account`."
      }
    },
    "kind": "dev",
    "methods": {
      "allowInitializePath((uint32,bytes32,uint64))": {
        "details": "This indicates to the endpoint that the OApp has enabled msgs for this particular path to be received.This defaults to assuming if a peer has been set, its initialized. Can be overridden by the OApp if there is other logic to determine this.",
        "params": {
          "origin": "The origin information containing the source endpoint and sender address."
        },
        "returns": {
          "_0": "Whether the path has been initialized."
        }
      },
      "approvalRequired()": {
        "details": "In the case of ONFT where the contract IS the token, approval is NOT required.",
        "returns": {
          "_0": "requiresApproval Needs approval of the underlying token implementation."
        }
      },
      "approve(address,uint256)": {
        "details": "See {IERC721-approve}."
      },
      "balanceOf(address)": {
        "details": "See {IERC721-balanceOf}."
      },
      "combineOptions(uint32,uint16,bytes)": {
        "details": "If there is an enforced lzReceive option: - {gasLimit: 200k, msg.value: 1 ether} AND a caller supplies a lzReceive option: {gasLimit: 100k, msg.value: 0.5 ether} - The resulting options will be {gasLimit: 300k, msg.value: 1.5 ether} when the message is executed on the remote lzReceive() function.This presence of duplicated options is handled off-chain in the verifier/executor.",
        "params": {
          "_eid": "The endpoint ID.",
          "_extraOptions": "Additional options passed by the caller.",
          "_msgType": "The OAPP message type."
        },
        "returns": {
          "_0": "options The combination of caller specified options AND enforced options."
        }
      },
      "getApproved(uint256)": {
        "details": "See {IERC721-getApproved}."
      },
      "isApprovedForAll(address,address)": {
        "details": "See {IERC721-isApprovedForAll}."
      },
      "isComposeMsgSender((uint32,bytes32,uint64),bytes,address)": {
        "details": "_origin The origin information containing the source endpoint and sender address.  - srcEid: The source chain endpoint ID.  - sender: The sender address on the src chain.  - nonce: The nonce of the message._message The lzReceive payload.Applications can optionally choose to implement separate composeMsg senders that are NOT the bridging layer.The default sender IS the OAppReceiver implementer.",
        "params": {
          "_sender": "The sender address."
        },
        "returns": {
          "_0": "isSender Is a valid sender."
        }
      },
      "isPeer(uint32,bytes32)": {
        "details": "Check if the peer is considered 'trusted' by the OApp.Enables OAppPreCrimeSimulator to check whether a potential Inbound Packet is from a trusted source.",
        "params": {
          "_eid": "The endpoint ID to check.",
          "_peer": "The peer to check."
        },
        "returns": {
          "_0": "Whether the peer passed is considered 'trusted' by the OApp."
        }
      },
      "lzReceive((uint32,bytes32,uint64),bytes32,bytes,address,bytes)": {
        "details": "Entry point for receiving messages or packets from the endpoint.Entry point for receiving msg/packet from the LayerZero endpoint.",
        "params": {
          "_executor": "The address of the executor for the received message.",
          "_extraData": "Additional arbitrary data provided by the corresponding executor.",
          "_guid": "The unique identifier for the received LayerZero message.",
          "_message": "The payload of the received message.",
          "_origin": "The origin information containing the source endpoint and sender address.  - srcEid: The source chain endpoint ID.  - sender: The sender address on the src chain.  - nonce: The nonce of the message."
        }
      },
      "lzReceiveAndRevert(((uint32,bytes32,uint64),uint32,address,bytes32,uint256,address,bytes,bytes)[])": {
        "details": "Interface for pre-crime simulations. Always reverts at the end with the simulation results.WARNING: MUST revert at the end with the simulation results.Gives the preCrime implementation the ability to mock sending packets to the lzReceive function, WITHOUT actually executing them.",
        "params": {
          "_packets": "An array of InboundPacket objects representing received packets to be delivered."
        }
      },
      "lzReceiveSimulate((uint32,bytes32,uint64),bytes32,bytes,address,bytes)": {
        "details": "Is effectively an internal function because msg.sender must be address(this). Allows resetting the call stack for 'internal' calls.",
        "params": {
          "_executor": "The executor address for the packet.",
          "_extraData": "Additional data for the packet.",
          "_guid": "The unique identifier of the packet.",
          "_message": "The message payload of the packet.",
          "_origin": "The origin information containing the source endpoint and sender address.  - srcEid: The source chain endpoint ID.  - sender: The sender address on the src chain.  - nonce: The nonce of the message."
        }
      },
      "name()": {
        "details": "See {IERC721Metadata-name}."
      },
      "nextNonce(uint32,bytes32)": {
        "details": "_srcEid The source endpoint ID._sender The sender address.The path nonce starts from 1. If 0 is returned it means that there is NO nonce ordered enforcement.Is required by the off-chain executor to determine the OApp expects msg execution is ordered.This is also enforced by the OApp.By default this is NOT enabled. ie. nextNonce is hardcoded to return 0.",
        "returns": {
          "nonce": "The next nonce."
        }
      },
      "oApp()": {
        "details": "Retrieves the address of the OApp contract.The simulator contract is the base contract for the OApp by default.If the simulator is a separate contract, override this function.",
        "returns": {
          "_0": "The address of the OApp contract."
        }
      },
      "oAppVersion()": {
        "returns": {
          "receiverVersion": "The version of the OAppReceiver.sol implementation.",
          "senderVersion": "The version of the OAppSender.sol implementation."
        }
      },
      "onftVersion()": {
        "details": "version: Indicates a cross-chain compatible msg encoding with other ONFTs.If a new feature is added to the ONFT cross-chain msg encoding, the version will be incremented.ie. localONFT version(x,1) CAN send messages to remoteONFT version(x,1)",
        "returns": {
          "interfaceId": "The interface ID (0x23e18da6).",
          "version": "The version."
        }
      },
      "owner()": {
        "details": "Returns the address of the current owner."
      },
      "ownerOf(uint256)": {
        "details": "See {IERC721-ownerOf}."
      },
      "paused()": {
        "details": "Returns true if the contract is paused, and false otherwise."
      },
      "quoteSend((uint32,bytes32,uint256,bytes,bytes,bytes),bool)": {
        "details": "MessagingFee: LayerZero msg fee  - nativeFee: The native fee.  - lzTokenFee: The lzToken fee.",
        "params": {
          "_payInLzToken": "Flag indicating whether the caller is paying in the LZ token.",
          "_sendParam": "The parameters for the send() operation."
        },
        "returns": {
          "msgFee": "fee The calculated LayerZero messaging fee from the send() operation."
        }
      },
      "renounceOwnership()": {
        "details": "Leaves the contract without owner. It will not be possible to call `onlyOwner` functions. Can only be called by the current owner. NOTE: Renouncing ownership will leave the contract without an owner, thereby disabling any functionality that is only available to the owner."
      },
      "royaltyInfo(uint256,uint256)": {
        "details": "Returns how much royalty is owed and to whom, based on a sale price that may be denominated in any unit of exchange. The royalty amount is denominated and should be paid in that same unit of exchange. NOTE: ERC-2981 allows setting the royalty to 100% of the price. In that case all the price would be sent to the royalty receiver and 0 tokens to the seller. Contracts dealing with royalty should consider empty transfers."
      },
      "safeTransferFrom(address,address,uint256)": {
        "details": "See {IERC721-safeTransferFrom}."
      },
      "safeTransferFrom(address,address,uint256,bytes)": {
        "details": "See {IERC721-safeTransferFrom}."
      },
      "send((uint32,bytes32,uint256,bytes,bytes,bytes),(uint256,uint256),address)": {
        "details": "MessagingReceipt: LayerZero msg receipt  - guid: The unique identifier for the sent message.  - nonce: The nonce of the sent message.  - fee: The LayerZero fee incurred for the message.",
        "params": {
          "_fee": "The fee information supplied by the caller.      - nativeFee: The native fee.      - lzTokenFee: The lzToken fee.",
          "_refundAddress": "The address to receive any excess funds from fees etc. on the src.",
          "_sendParam": "The parameters for the send operation."
        },
        "returns": {
          "msgReceipt": "receipt The LayerZero messaging receipt from the send() operation."
        }
      },
      "setApprovalForAll(address,bool)": {
        "details": "See {IERC721-setApprovalForAll}."
      },
      "setDelegate(address)": {
        "details": "Only the owner/admin of the OApp can call this function.Provides the ability for a delegate to set configs, on behalf of the OApp, directly on the Endpoint contract.",
        "params": {
          "_delegate": "The address of the delegate to be set."
        }
      },
      "setEnforcedOptions((uint32,uint16,bytes)[])": {
        "details": "Sets the enforced options for specific endpoint and message type combinations.Only the owner/admin of the OApp can call this function.Provides a way for the OApp to enforce things like paying for PreCrime, AND/OR minimum dst lzReceive gas amounts etc.These enforced options can vary as the potential options/execution on the remote may differ as per the msgType. eg. Amount of lzReceive() gas necessary to deliver a lzCompose() message adds overhead you dont want to pay if you are only making a standard LayerZero message ie. lzReceive() WITHOUT sendCompose().",
        "params": {
          "_enforcedOptions": "An array of EnforcedOptionParam structures specifying enforced options."
        }
      },
      "setMsgInspector(address)": {
        "details": "This is an optional contract that can be used to inspect both 'message' and 'options'.Set it to address(0) to disable it, or set it to a contract address to enable it.",
        "params": {
          "_msgInspector": "The address of the message inspector."
        }
      },
      "setPeer(uint32,bytes32)": {
        "details": "Only the owner/admin of the OApp can call this function.Indicates that the peer is trusted to send LayerZero messages to this OApp.Set this to bytes32(0) to remove the peer address.Peer is a bytes32 to accommodate non-evm chains.",
        "params": {
          "_eid": "The endpoint ID.",
          "_peer": "The address of the peer to be associated with the corresponding endpoint."
        }
      },
      "setPreCrime(address)": {
        "details": "Sets the preCrime contract address.",
        "params": {
          "_preCrime": "The address of the preCrime contract."
        }
      },
      "symbol()": {
        "details": "See {IERC721Metadata-symbol}."
      },
      "tokenURI(uint256)": {
        "details": "See {IERC721Metadata-tokenURI}."
      },
      "transferFrom(address,address,uint256)": {
        "details": "See {IERC721-transferFrom}."
      },
      "transferOwnership(address)": {
        "details": "Transfers ownership of the contract to a new account (`newOwner`). Can only be called by the current owner."
      }
    },
    "version": 1
  },
  "userdoc": {
    "kind": "user",
    "methods": {
      "allowInitializePath((uint32,bytes32,uint64))": {
        "notice": "Checks if the path initialization is allowed based on the provided origin."
      },
      "approvalRequired()": {
        "notice": "Indicates whether the ONFT721 contract requires approval of the 'token()' to send."
      },
      "combineOptions(uint32,uint16,bytes)": {
        "notice": "Combines options for a given endpoint and message type."
      },
      "endpoint()": {
        "notice": "Retrieves the LayerZero endpoint associated with the OApp."
      },
      "isComposeMsgSender((uint32,bytes32,uint64),bytes,address)": {
        "notice": "Indicates whether an address is an approved composeMsg sender to the Endpoint."
      },
      "nextNonce(uint32,bytes32)": {
        "notice": "Retrieves the next nonce for a given source endpoint and sender address."
      },
      "oAppVersion()": {
        "notice": "Retrieves the OApp version information."
      },
      "onftVersion()": {
        "notice": "Retrieves interfaceID and the version of the ONFT."
      },
      "peers(uint32)": {
        "notice": "Retrieves the peer (OApp) associated with a corresponding endpoint."
      },
      "quoteSend((uint32,bytes32,uint256,bytes,bytes,bytes),bool)": {
        "notice": "Provides a quote for the send() operation."
      },
      "send((uint32,bytes32,uint256,bytes,bytes,bytes),(uint256,uint256),address)": {
        "notice": "Executes the send() operation."
      },
      "setDelegate(address)": {
        "notice": "Sets the delegate address for the OApp."
      },
      "setMsgInspector(address)": {
        "notice": "Sets the message inspector address for the OFT."
      },
      "setPeer(uint32,bytes32)": {
        "notice": "Sets the peer address (OApp instance) for a corresponding endpoint."
      },
      "token()": {
        "notice": "Retrieves the address of the underlying ERC721 implementation (ie. this contract)."
      }
    },
    "version": 1
  },
  "storageLayout": {
    "storage": [
      {
        "astId": 3534,
        "contract": "contracts/CultBearsV2Avalanche.sol:CultBearsV2Avalanche",
        "label": "_owner",
        "offset": 0,
        "slot": "0",
        "type": "t_address"
      },
      {
        "astId": 1390,
        "contract": "contracts/CultBearsV2Avalanche.sol:CultBearsV2Avalanche",
        "label": "peers",
        "offset": 0,
        "slot": "1",
        "type": "t_mapping(t_uint32,t_bytes32)"
      },
      {
        "astId": 2166,
        "contract": "contracts/CultBearsV2Avalanche.sol:CultBearsV2Avalanche",
        "label": "preCrime",
        "offset": 0,
        "slot": "2",
        "type": "t_address"
      },
      {
        "astId": 2006,
        "contract": "contracts/CultBearsV2Avalanche.sol:CultBearsV2Avalanche",
        "label": "enforcedOptions",
        "offset": 0,
        "slot": "3",
        "type": "t_mapping(t_uint32,t_mapping(t_uint16,t_bytes_storage))"
      },
      {
        "astId": 2929,
        "contract": "contracts/CultBearsV2Avalanche.sol:CultBearsV2Avalanche",
        "label": "msgInspector",
        "offset": 0,
        "slot": "4",
        "type": "t_address"
      },
      {
        "astId": 4442,
        "contract": "contracts/CultBearsV2Avalanche.sol:CultBearsV2Avalanche",
        "label": "_name",
        "offset": 0,
        "slot": "5",
        "type": "t_string_storage"
      },
      {
        "astId": 4444,
        "contract": "contracts/CultBearsV2Avalanche.sol:CultBearsV2Avalanche",
        "label": "_symbol",
        "offset": 0,
        "slot": "6",
        "type": "t_string_storage"
      },
      {
        "astId": 4448,
        "contract": "contracts/CultBearsV2Avalanche.sol:CultBearsV2Avalanche",
        "label": "_owners",
        "offset": 0,
        "slot": "7",
        "type": "t_mapping(t_uint256,t_address)"
      },
      {
        "astId": 4452,
        "contract": "contracts/CultBearsV2Avalanche.sol:CultBearsV2Avalanche",
        "label": "_balances",
        "offset": 0,
        "slot": "8",
        "type": "t_mapping(t_address,t_uint256)"
      },
      {
        "astId": 4456,
        "contract": "contracts/CultBearsV2Avalanche.sol:CultBearsV2Avalanche",
        "label": "_tokenApprovals",
        "offset": 0,
        "slot": "9",
        "type": "t_mapping(t_uint256,t_address)"
      },
      {
        "astId": 4462,
        "contract": "contracts/CultBearsV2Avalanche.sol:CultBearsV2Avalanche",
        "label": "_operatorApprovals",
        "offset": 0,
        "slot": "10",
        "type": "t_mapping(t_address,t_mapping(t_address,t_bool))"
      },
      {
        "astId": 2766,
        "contract": "contracts/CultBearsV2Avalanche.sol:CultBearsV2Avalanche",
        "label": "baseTokenURI",
        "offset": 0,
        "slot": "11",
        "type": "t_string_storage"
      },
      {
        "astId": 6364,
        "contract": "contracts/CultBearsV2Avalanche.sol:CultBearsV2Avalanche",
        "label": "_status",
        "offset": 0,
        "slot": "12",
        "type": "t_uint256"
      },
      {
        "astId": 5626,
        "contract": "contracts/CultBearsV2Avalanche.sol:CultBearsV2Avalanche",
        "label": "_defaultRoyaltyInfo",
        "offset": 0,
        "slot": "13",
        "type": "t_struct(RoyaltyInfo)5623_storage"
      },
      {
        "astId": 5631,
        "contract": "contracts/CultBearsV2Avalanche.sol:CultBearsV2Avalanche",
        "label": "_tokenRoyaltyInfo",
        "offset": 0,
        "slot": "14",
        "type": "t_mapping(t_uint256,t_struct(RoyaltyInfo)5623_storage)"
      },
      {
        "astId": 6245,
        "contract": "contracts/CultBearsV2Avalanche.sol:CultBearsV2Avalanche",
        "label": "_paused",
        "offset": 0,
        "slot": "15",
        "type": "t_bool"
      },
      {
        "astId": 10675,
        "contract": "contracts/CultBearsV2Avalanche.sol:CultBearsV2Avalanche",
        "label": "baseURI",
        "offset": 0,
        "slot": "16",
        "type": "t_string_storage"
      },
      {
        "astId": 10678,
        "contract": "contracts/CultBearsV2Avalanche.sol:CultBearsV2Avalanche",
        "label": "fileExtension",
        "offset": 0,
        "slot": "17",
        "type": "t_string_storage"
      },
      {
        "astId": 10683,
        "contract": "contracts/CultBearsV2Avalanche.sol:CultBearsV2Avalanche",
        "label": "treasuryWallet",
        "offset": 0,
        "slot": "18",
        "type": "t_address"
      },
      {
        "astId": 10686,
        "contract": "contracts/CultBearsV2Avalanche.sol:CultBearsV2Avalanche",
        "label": "isPublicMintAllowed",
        "offset": 20,
        "slot": "18",
        "type": "t_bool"
      },
      {
        "astId": 10691,
        "contract": "contracts/CultBearsV2Avalanche.sol:CultBearsV2Avalanche",
        "label": "privateSalePrice",
        "offset": 0,
        "slot": "19",
        "type": "t_mapping(t_enum(TokenRarityType)10668,t_uint256)"
      },
      {
        "astId": 10696,
        "contract": "contracts/CultBearsV2Avalanche.sol:CultBearsV2Avalanche",
        "label": "publicSalePrice",
        "offset": 0,
        "slot": "20",
        "type": "t_mapping(t_enum(TokenRarityType)10668,t_uint256)"
      },
      {
        "astId": 10702,
        "contract": "contracts/CultBearsV2Avalanche.sol:CultBearsV2Avalanche",
        "label": "tokenIDRange",
        "offset": 0,
        "slot": "21",
        "type": "t_mapping(t_enum(TokenRarityType)10668,t_struct(TokenIDRange)10673_storage)"
      },
      {
        "astId": 10707,
        "contract": "contracts/CultBearsV2Avalanche.sol:CultBearsV2Avalanche",
        "label": "tokenIDCounter",
        "offset": 0,
        "slot": "22",
        "type": "t_mapping(t_enum(TokenRarityType)10668,t_uint16)"
      },
      {
        "astId": 10711,
        "contract": "contracts/CultBearsV2Avalanche.sol:CultBearsV2Avalanche",
        "label": "ogWhitelist",
        "offset": 0,
        "slot": "23",
        "type": "t_mapping(t_address,t_bool)"
      },
      {
        "astId": 10715,
        "contract": "contracts/CultBearsV2Avalanche.sol:CultBearsV2Avalanche",
        "label": "bearlistedWhitelist",
        "offset": 0,
        "slot": "24",
        "type": "t_mapping(t_address,t_bool)"
      },
      {
        "astId": 10719,
        "contract": "contracts/CultBearsV2Avalanche.sol:CultBearsV2Avalanche",
        "label": "airdropped",
        "offset": 0,
        "slot": "25",
        "type": "t_mapping(t_uint256,t_bool)"
      },
      {
        "astId": 10723,
        "contract": "contracts/CultBearsV2Avalanche.sol:CultBearsV2Avalanche",
        "label": "mintedTokens",
        "offset": 0,
        "slot": "26",
        "type": "t_mapping(t_uint256,t_bool)"
      },
      {
        "astId": 10725,
        "contract": "contracts/CultBearsV2Avalanche.sol:CultBearsV2Avalanche",
        "label": "totalMintedTokens",
        "offset": 0,
        "slot": "27",
        "type": "t_uint256"
      }
    ],
    "types": {
      "t_address": {
        "encoding": "inplace",
        "label": "address",
        "numberOfBytes": "20"
      },
      "t_bool": {
        "encoding": "inplace",
        "label": "bool",
        "numberOfBytes": "1"
      },
      "t_bytes32": {
        "encoding": "inplace",
        "label": "bytes32",
        "numberOfBytes": "32"
      },
      "t_bytes_storage": {
        "encoding": "bytes",
        "label": "bytes",
        "numberOfBytes": "32"
      },
      "t_enum(TokenRarityType)10668": {
        "encoding": "inplace",
        "label": "enum CultBearsV2Avalanche.TokenRarityType",
        "numberOfBytes": "1"
      },
      "t_mapping(t_address,t_bool)": {
        "encoding": "mapping",
        "key": "t_address",
        "label": "mapping(address => bool)",
        "numberOfBytes": "32",
        "value": "t_bool"
      },
      "t_mapping(t_address,t_mapping(t_address,t_bool))": {
        "encoding": "mapping",
        "key": "t_address",
        "label": "mapping(address => mapping(address => bool))",
        "numberOfBytes": "32",
        "value": "t_mapping(t_address,t_bool)"
      },
      "t_mapping(t_address,t_uint256)": {
        "encoding": "mapping",
        "key": "t_address",
        "label": "mapping(address => uint256)",
        "numberOfBytes": "32",
        "value": "t_uint256"
      },
      "t_mapping(t_enum(TokenRarityType)10668,t_struct(TokenIDRange)10673_storage)": {
        "encoding": "mapping",
        "key": "t_enum(TokenRarityType)10668",
        "label": "mapping(enum CultBearsV2Avalanche.TokenRarityType => struct CultBearsV2Avalanche.TokenIDRange)",
        "numberOfBytes": "32",
        "value": "t_struct(TokenIDRange)10673_storage"
      },
      "t_mapping(t_enum(TokenRarityType)10668,t_uint16)": {
        "encoding": "mapping",
        "key": "t_enum(TokenRarityType)10668",
        "label": "mapping(enum CultBearsV2Avalanche.TokenRarityType => uint16)",
        "numberOfBytes": "32",
        "value": "t_uint16"
      },
      "t_mapping(t_enum(TokenRarityType)10668,t_uint256)": {
        "encoding": "mapping",
        "key": "t_enum(TokenRarityType)10668",
        "label": "mapping(enum CultBearsV2Avalanche.TokenRarityType => uint256)",
        "numberOfBytes": "32",
        "value": "t_uint256"
      },
      "t_mapping(t_uint16,t_bytes_storage)": {
        "encoding": "mapping",
        "key": "t_uint16",
        "label": "mapping(uint16 => bytes)",
        "numberOfBytes": "32",
        "value": "t_bytes_storage"
      },
      "t_mapping(t_uint256,t_address)": {
        "encoding": "mapping",
        "key": "t_uint256",
        "label": "mapping(uint256 => address)",
        "numberOfBytes": "32",
        "value": "t_address"
      },
      "t_mapping(t_uint256,t_bool)": {
        "encoding": "mapping",
        "key": "t_uint256",
        "label": "mapping(uint256 => bool)",
        "numberOfBytes": "32",
        "value": "t_bool"
      },
      "t_mapping(t_uint256,t_struct(RoyaltyInfo)5623_storage)": {
        "encoding": "mapping",
        "key": "t_uint256",
        "label": "mapping(uint256 => struct ERC2981.RoyaltyInfo)",
        "numberOfBytes": "32",
        "value": "t_struct(RoyaltyInfo)5623_storage"
      },
      "t_mapping(t_uint32,t_bytes32)": {
        "encoding": "mapping",
        "key": "t_uint32",
        "label": "mapping(uint32 => bytes32)",
        "numberOfBytes": "32",
        "value": "t_bytes32"
      },
      "t_mapping(t_uint32,t_mapping(t_uint16,t_bytes_storage))": {
        "encoding": "mapping",
        "key": "t_uint32",
        "label": "mapping(uint32 => mapping(uint16 => bytes))",
        "numberOfBytes": "32",
        "value": "t_mapping(t_uint16,t_bytes_storage)"
      },
      "t_string_storage": {
        "encoding": "bytes",
        "label": "string",
        "numberOfBytes": "32"
      },
      "t_struct(RoyaltyInfo)5623_storage": {
        "encoding": "inplace",
        "label": "struct ERC2981.RoyaltyInfo",
        "members": [
          {
            "astId": 5620,
            "contract": "contracts/CultBearsV2Avalanche.sol:CultBearsV2Avalanche",
            "label": "receiver",
            "offset": 0,
            "slot": "0",
            "type": "t_address"
          },
          {
            "astId": 5622,
            "contract": "contracts/CultBearsV2Avalanche.sol:CultBearsV2Avalanche",
            "label": "royaltyFraction",
            "offset": 20,
            "slot": "0",
            "type": "t_uint96"
          }
        ],
        "numberOfBytes": "32"
      },
      "t_struct(TokenIDRange)10673_storage": {
        "encoding": "inplace",
        "label": "struct CultBearsV2Avalanche.TokenIDRange",
        "members": [
          {
            "astId": 10670,
            "contract": "contracts/CultBearsV2Avalanche.sol:CultBearsV2Avalanche",
            "label": "start",
            "offset": 0,
            "slot": "0",
            "type": "t_uint256"
          },
          {
            "astId": 10672,
            "contract": "contracts/CultBearsV2Avalanche.sol:CultBearsV2Avalanche",
            "label": "amount",
            "offset": 0,
            "slot": "1",
            "type": "t_uint256"
          }
        ],
        "numberOfBytes": "64"
      },
      "t_uint16": {
        "encoding": "inplace",
        "label": "uint16",
        "numberOfBytes": "2"
      },
      "t_uint256": {
        "encoding": "inplace",
        "label": "uint256",
        "numberOfBytes": "32"
      },
      "t_uint32": {
        "encoding": "inplace",
        "label": "uint32",
        "numberOfBytes": "4"
      },
      "t_uint96": {
        "encoding": "inplace",
        "label": "uint96",
        "numberOfBytes": "12"
      }
    }
  }
}